{
  "_format": "hh-sol-artifact-1",
  "contractName": "ProjectPollLedger",
  "sourceName": "contracts/ProjectPollLedger.sol",
  "abi": [
    {
      "inputs": [
        {
          "internalType": "address",
          "name": "semaphoreAddress",
          "type": "address"
        }
      ],
      "stateMutability": "nonpayable",
      "type": "constructor"
    },
    {
      "anonymous": false,
      "inputs": [
        {
          "indexed": false,
          "internalType": "uint256",
          "name": "electionId",
          "type": "uint256"
        },
        {
          "indexed": false,
          "internalType": "string",
          "name": "name",
          "type": "string"
        },
        {
          "indexed": false,
          "internalType": "uint256",
          "name": "startTime",
          "type": "uint256"
        },
        {
          "indexed": false,
          "internalType": "uint256",
          "name": "endTime",
          "type": "uint256"
        },
        {
          "indexed": false,
          "internalType": "uint256",
          "name": "proposalCount",
          "type": "uint256"
        }
      ],
      "name": "ElectionCreated",
      "type": "event"
    },
    {
      "anonymous": false,
      "inputs": [
        {
          "indexed": false,
          "internalType": "uint256",
          "name": "electionId",
          "type": "uint256"
        },
        {
          "indexed": false,
          "internalType": "string",
          "name": "name",
          "type": "string"
        }
      ],
      "name": "ElectionDeleted",
      "type": "event"
    },
    {
      "anonymous": false,
      "inputs": [
        {
          "indexed": true,
          "internalType": "uint256",
          "name": "electionId",
          "type": "uint256"
        },
        {
          "indexed": false,
          "internalType": "uint256",
          "name": "proposalId",
          "type": "uint256"
        }
      ],
      "name": "ProposalAccepted",
      "type": "event"
    },
    {
      "anonymous": false,
      "inputs": [
        {
          "indexed": true,
          "internalType": "uint256",
          "name": "electionId",
          "type": "uint256"
        },
        {
          "indexed": false,
          "internalType": "uint256",
          "name": "proposalId",
          "type": "uint256"
        }
      ],
      "name": "ProposalDeclined",
      "type": "event"
    },
    {
      "anonymous": false,
      "inputs": [
        {
          "indexed": true,
          "internalType": "uint256",
          "name": "electionId",
          "type": "uint256"
        },
        {
          "indexed": false,
          "internalType": "uint256",
          "name": "proposalId",
          "type": "uint256"
        }
      ],
      "name": "ProposalSubmitted",
      "type": "event"
    },
    {
      "anonymous": false,
      "inputs": [
        {
          "indexed": true,
          "internalType": "uint256",
          "name": "electionId",
          "type": "uint256"
        },
        {
          "indexed": false,
          "internalType": "uint256",
          "name": "proposalIndex",
          "type": "uint256"
        },
        {
          "indexed": false,
          "internalType": "bytes32",
          "name": "signal",
          "type": "bytes32"
        },
        {
          "indexed": false,
          "internalType": "uint256",
          "name": "nullifierHash",
          "type": "uint256"
        }
      ],
      "name": "VoteCasted",
      "type": "event"
    },
    {
      "inputs": [],
      "name": "MAX_MEMBERS_PER_TREE",
      "outputs": [
        {
          "internalType": "uint256",
          "name": "",
          "type": "uint256"
        }
      ],
      "stateMutability": "view",
      "type": "function"
    },
    {
      "inputs": [],
      "name": "MERKLE_TREE_DEPTH",
      "outputs": [
        {
          "internalType": "uint256",
          "name": "",
          "type": "uint256"
        }
      ],
      "stateMutability": "view",
      "type": "function"
    },
    {
      "inputs": [
        {
          "internalType": "uint256",
          "name": "electionId",
          "type": "uint256"
        },
        {
          "internalType": "uint256",
          "name": "proposalId",
          "type": "uint256"
        }
      ],
      "name": "acceptProposal",
      "outputs": [],
      "stateMutability": "nonpayable",
      "type": "function"
    },
    {
      "inputs": [
        {
          "internalType": "uint256",
          "name": "identityCommitment",
          "type": "uint256"
        }
      ],
      "name": "addMember",
      "outputs": [
        {
          "internalType": "uint256",
          "name": "",
          "type": "uint256"
        }
      ],
      "stateMutability": "nonpayable",
      "type": "function"
    },
    {
      "inputs": [
        {
          "internalType": "uint256",
          "name": "electionId",
          "type": "uint256"
        }
      ],
      "name": "checkVotes",
      "outputs": [
        {
          "internalType": "uint256[]",
          "name": "",
          "type": "uint256[]"
        }
      ],
      "stateMutability": "view",
      "type": "function"
    },
    {
      "inputs": [
        {
          "internalType": "string",
          "name": "name",
          "type": "string"
        },
        {
          "internalType": "string",
          "name": "cityArea",
          "type": "string"
        },
        {
          "internalType": "uint256",
          "name": "proposalCount",
          "type": "uint256"
        },
        {
          "internalType": "string[]",
          "name": "proposalDataCIDs",
          "type": "string[]"
        },
        {
          "internalType": "string[]",
          "name": "proposalImageCIDs",
          "type": "string[]"
        },
        {
          "internalType": "uint256",
          "name": "startTime",
          "type": "uint256"
        },
        {
          "internalType": "uint256",
          "name": "endTime",
          "type": "uint256"
        }
      ],
      "name": "createElection",
      "outputs": [],
      "stateMutability": "nonpayable",
      "type": "function"
    },
    {
      "inputs": [],
      "name": "currentGroupId",
      "outputs": [
        {
          "internalType": "uint256",
          "name": "",
          "type": "uint256"
        }
      ],
      "stateMutability": "view",
      "type": "function"
    },
    {
      "inputs": [],
      "name": "currentGroupSize",
      "outputs": [
        {
          "internalType": "uint256",
          "name": "",
          "type": "uint256"
        }
      ],
      "stateMutability": "view",
      "type": "function"
    },
    {
      "inputs": [
        {
          "internalType": "uint256",
          "name": "electionId",
          "type": "uint256"
        },
        {
          "internalType": "uint256",
          "name": "proposalId",
          "type": "uint256"
        }
      ],
      "name": "declineProposal",
      "outputs": [],
      "stateMutability": "nonpayable",
      "type": "function"
    },
    {
      "inputs": [
        {
          "internalType": "uint256",
          "name": "electionId",
          "type": "uint256"
        }
      ],
      "name": "deleteElection",
      "outputs": [],
      "stateMutability": "nonpayable",
      "type": "function"
    },
    {
      "inputs": [],
      "name": "electionCount",
      "outputs": [
        {
          "internalType": "uint256",
          "name": "",
          "type": "uint256"
        }
      ],
      "stateMutability": "view",
      "type": "function"
    },
    {
      "inputs": [
        {
          "internalType": "uint256",
          "name": "",
          "type": "uint256"
        }
      ],
      "name": "elections",
      "outputs": [
        {
          "internalType": "string",
          "name": "name",
          "type": "string"
        },
        {
          "internalType": "string",
          "name": "cityArea",
          "type": "string"
        },
        {
          "internalType": "uint256",
          "name": "startTime",
          "type": "uint256"
        },
        {
          "internalType": "uint256",
          "name": "endTime",
          "type": "uint256"
        },
        {
          "internalType": "bool",
          "name": "active",
          "type": "bool"
        },
        {
          "internalType": "bool",
          "name": "finalized",
          "type": "bool"
        }
      ],
      "stateMutability": "view",
      "type": "function"
    },
    {
      "inputs": [
        {
          "internalType": "uint256",
          "name": "electionId",
          "type": "uint256"
        }
      ],
      "name": "endElection",
      "outputs": [],
      "stateMutability": "nonpayable",
      "type": "function"
    },
    {
      "inputs": [
        {
          "internalType": "uint256",
          "name": "electionId",
          "type": "uint256"
        }
      ],
      "name": "finalizeElection",
      "outputs": [],
      "stateMutability": "nonpayable",
      "type": "function"
    },
    {
      "inputs": [],
      "name": "getAllElections",
      "outputs": [
        {
          "components": [
            {
              "internalType": "uint256",
              "name": "electionId",
              "type": "uint256"
            },
            {
              "internalType": "string",
              "name": "name",
              "type": "string"
            },
            {
              "internalType": "string",
              "name": "cityArea",
              "type": "string"
            },
            {
              "internalType": "uint256",
              "name": "startTime",
              "type": "uint256"
            },
            {
              "internalType": "uint256",
              "name": "endTime",
              "type": "uint256"
            },
            {
              "internalType": "bool",
              "name": "active",
              "type": "bool"
            },
            {
              "internalType": "bool",
              "name": "finalized",
              "type": "bool"
            }
          ],
          "internalType": "struct ProjectPollLedger.ElectionView[]",
          "name": "",
          "type": "tuple[]"
        }
      ],
      "stateMutability": "view",
      "type": "function"
    },
    {
      "inputs": [],
      "name": "getCurrentBlockTimestamp",
      "outputs": [
        {
          "internalType": "uint256",
          "name": "",
          "type": "uint256"
        }
      ],
      "stateMutability": "view",
      "type": "function"
    },
    {
      "inputs": [],
      "name": "getCurrentGroupId",
      "outputs": [
        {
          "internalType": "uint256",
          "name": "",
          "type": "uint256"
        }
      ],
      "stateMutability": "view",
      "type": "function"
    },
    {
      "inputs": [],
      "name": "getCurrentGroupSize",
      "outputs": [
        {
          "internalType": "uint256",
          "name": "",
          "type": "uint256"
        }
      ],
      "stateMutability": "view",
      "type": "function"
    },
    {
      "inputs": [
        {
          "internalType": "uint256",
          "name": "electionId",
          "type": "uint256"
        }
      ],
      "name": "getElection",
      "outputs": [
        {
          "components": [
            {
              "internalType": "uint256",
              "name": "electionId",
              "type": "uint256"
            },
            {
              "internalType": "string",
              "name": "name",
              "type": "string"
            },
            {
              "internalType": "string",
              "name": "cityArea",
              "type": "string"
            },
            {
              "internalType": "uint256",
              "name": "startTime",
              "type": "uint256"
            },
            {
              "internalType": "uint256",
              "name": "endTime",
              "type": "uint256"
            },
            {
              "internalType": "bool",
              "name": "active",
              "type": "bool"
            },
            {
              "internalType": "bool",
              "name": "finalized",
              "type": "bool"
            }
          ],
          "internalType": "struct ProjectPollLedger.ElectionView",
          "name": "",
          "type": "tuple"
        }
      ],
      "stateMutability": "view",
      "type": "function"
    },
    {
      "inputs": [
        {
          "internalType": "uint256",
          "name": "groupId",
          "type": "uint256"
        }
      ],
      "name": "getGroupSize",
      "outputs": [
        {
          "internalType": "uint256",
          "name": "",
          "type": "uint256"
        }
      ],
      "stateMutability": "view",
      "type": "function"
    },
    {
      "inputs": [
        {
          "internalType": "uint256",
          "name": "electionId",
          "type": "uint256"
        }
      ],
      "name": "getPendingProposalCount",
      "outputs": [
        {
          "internalType": "uint256",
          "name": "",
          "type": "uint256"
        }
      ],
      "stateMutability": "view",
      "type": "function"
    },
    {
      "inputs": [
        {
          "internalType": "uint256",
          "name": "electionId",
          "type": "uint256"
        }
      ],
      "name": "getPendingProposals",
      "outputs": [
        {
          "components": [
            {
              "internalType": "uint256",
              "name": "proposalId",
              "type": "uint256"
            },
            {
              "internalType": "string",
              "name": "dataCID",
              "type": "string"
            },
            {
              "internalType": "string",
              "name": "imageCID",
              "type": "string"
            },
            {
              "internalType": "uint256",
              "name": "timestamp",
              "type": "uint256"
            },
            {
              "internalType": "bool",
              "name": "processed",
              "type": "bool"
            }
          ],
          "internalType": "struct ProjectPollLedger.PendingProposalView[]",
          "name": "",
          "type": "tuple[]"
        }
      ],
      "stateMutability": "view",
      "type": "function"
    },
    {
      "inputs": [
        {
          "internalType": "uint256",
          "name": "electionId",
          "type": "uint256"
        }
      ],
      "name": "getProposals",
      "outputs": [
        {
          "components": [
            {
              "internalType": "uint256",
              "name": "voteCount",
              "type": "uint256"
            },
            {
              "internalType": "bool",
              "name": "winningProposal",
              "type": "bool"
            },
            {
              "internalType": "string",
              "name": "dataCID",
              "type": "string"
            },
            {
              "internalType": "string",
              "name": "imageCID",
              "type": "string"
            }
          ],
          "internalType": "struct ProjectPollLedger.Proposal[]",
          "name": "",
          "type": "tuple[]"
        }
      ],
      "stateMutability": "view",
      "type": "function"
    },
    {
      "inputs": [
        {
          "internalType": "uint256",
          "name": "localGroupId",
          "type": "uint256"
        }
      ],
      "name": "getSemaphoreGroupId",
      "outputs": [
        {
          "internalType": "uint256",
          "name": "",
          "type": "uint256"
        }
      ],
      "stateMutability": "pure",
      "type": "function"
    },
    {
      "inputs": [],
      "name": "getTotalGroups",
      "outputs": [
        {
          "internalType": "uint256",
          "name": "",
          "type": "uint256"
        }
      ],
      "stateMutability": "view",
      "type": "function"
    },
    {
      "inputs": [
        {
          "internalType": "uint256",
          "name": "electionId",
          "type": "uint256"
        }
      ],
      "name": "getWinnerDataCID",
      "outputs": [
        {
          "internalType": "string",
          "name": "winnerDataCID",
          "type": "string"
        }
      ],
      "stateMutability": "view",
      "type": "function"
    },
    {
      "inputs": [
        {
          "internalType": "uint256",
          "name": "electionId",
          "type": "uint256"
        }
      ],
      "name": "getWinningProposal",
      "outputs": [
        {
          "internalType": "uint256",
          "name": "winningProposal_",
          "type": "uint256"
        }
      ],
      "stateMutability": "view",
      "type": "function"
    },
    {
      "inputs": [
        {
          "internalType": "uint256",
          "name": "",
          "type": "uint256"
        }
      ],
      "name": "groupSizes",
      "outputs": [
        {
          "internalType": "uint256",
          "name": "",
          "type": "uint256"
        }
      ],
      "stateMutability": "view",
      "type": "function"
    },
    {
      "inputs": [
        {
          "internalType": "uint256",
          "name": "electionId",
          "type": "uint256"
        }
      ],
      "name": "hasElectionEnded",
      "outputs": [
        {
          "internalType": "bool",
          "name": "",
          "type": "bool"
        }
      ],
      "stateMutability": "view",
      "type": "function"
    },
    {
      "inputs": [],
      "name": "owner",
      "outputs": [
        {
          "internalType": "address",
          "name": "",
          "type": "address"
        }
      ],
      "stateMutability": "view",
      "type": "function"
    },
    {
      "inputs": [
        {
          "internalType": "uint256",
          "name": "",
          "type": "uint256"
        }
      ],
      "name": "pendingProposalCounts",
      "outputs": [
        {
          "internalType": "uint256",
          "name": "",
          "type": "uint256"
        }
      ],
      "stateMutability": "view",
      "type": "function"
    },
    {
      "inputs": [
        {
          "internalType": "uint256",
          "name": "",
          "type": "uint256"
        },
        {
          "internalType": "uint256",
          "name": "",
          "type": "uint256"
        }
      ],
      "name": "pendingProposals",
      "outputs": [
        {
          "internalType": "string",
          "name": "dataCID",
          "type": "string"
        },
        {
          "internalType": "string",
          "name": "imageCID",
          "type": "string"
        },
        {
          "internalType": "uint256",
          "name": "timestamp",
          "type": "uint256"
        },
        {
          "internalType": "bool",
          "name": "processed",
          "type": "bool"
        }
      ],
      "stateMutability": "view",
      "type": "function"
    },
    {
      "inputs": [],
      "name": "semaphore",
      "outputs": [
        {
          "internalType": "contract ISemaphore",
          "name": "",
          "type": "address"
        }
      ],
      "stateMutability": "view",
      "type": "function"
    },
    {
      "inputs": [
        {
          "internalType": "address",
          "name": "newSemaphoreAddress",
          "type": "address"
        }
      ],
      "name": "setSemaphoreAddress",
      "outputs": [],
      "stateMutability": "nonpayable",
      "type": "function"
    },
    {
      "inputs": [
        {
          "internalType": "uint256",
          "name": "electionId",
          "type": "uint256"
        }
      ],
      "name": "shouldElectionStart",
      "outputs": [
        {
          "internalType": "bool",
          "name": "",
          "type": "bool"
        }
      ],
      "stateMutability": "view",
      "type": "function"
    },
    {
      "inputs": [
        {
          "internalType": "uint256",
          "name": "electionId",
          "type": "uint256"
        }
      ],
      "name": "startElection",
      "outputs": [],
      "stateMutability": "nonpayable",
      "type": "function"
    },
    {
      "inputs": [
        {
          "internalType": "uint256",
          "name": "electionId",
          "type": "uint256"
        },
        {
          "internalType": "string",
          "name": "dataCID",
          "type": "string"
        },
        {
          "internalType": "string",
          "name": "imageCID",
          "type": "string"
        }
      ],
      "name": "submitProposal",
      "outputs": [],
      "stateMutability": "nonpayable",
      "type": "function"
    },
    {
      "inputs": [
        {
          "internalType": "uint256",
          "name": "electionId",
          "type": "uint256"
        },
        {
          "internalType": "string",
          "name": "name",
          "type": "string"
        },
        {
          "internalType": "string",
          "name": "cityArea",
          "type": "string"
        },
        {
          "internalType": "uint256",
          "name": "proposalCount",
          "type": "uint256"
        },
        {
          "internalType": "string[]",
          "name": "proposalDataCIDs",
          "type": "string[]"
        },
        {
          "internalType": "string[]",
          "name": "proposalIPFSCIDs",
          "type": "string[]"
        },
        {
          "internalType": "uint256",
          "name": "startTime",
          "type": "uint256"
        },
        {
          "internalType": "uint256",
          "name": "endTime",
          "type": "uint256"
        }
      ],
      "name": "updateElection",
      "outputs": [],
      "stateMutability": "nonpayable",
      "type": "function"
    },
    {
      "inputs": [
        {
          "internalType": "uint256",
          "name": "electionId",
          "type": "uint256"
        },
        {
          "internalType": "uint256",
          "name": "proposalIndex",
          "type": "uint256"
        },
        {
          "internalType": "uint256",
          "name": "groupId",
          "type": "uint256"
        },
        {
          "internalType": "uint256",
          "name": "merkleTreeRoot",
          "type": "uint256"
        },
        {
          "internalType": "uint256",
          "name": "nullifierHash",
          "type": "uint256"
        },
        {
          "internalType": "uint256[8]",
          "name": "zkProof",
          "type": "uint256[8]"
        }
      ],
      "name": "vote",
      "outputs": [],
      "stateMutability": "nonpayable",
      "type": "function"
    }
  ],
  "bytecode": "0x6080604052600060015560006006556000600755348015601e57600080fd5b50604051613c95380380613c95833981016040819052603b91606d565b60008054336001600160a01b031991821617909155600580549091166001600160a01b0392909216919091179055609b565b600060208284031215607e57600080fd5b81516001600160a01b0381168114609457600080fd5b9392505050565b613beb806100aa6000396000f3fe608060405234801561001057600080fd5b506004361061023d5760003560e01c806371eaf02d1161013b578063997d2830116100b8578063ca53b2001161007c578063ca53b20014610522578063cadc68e914610542578063e1e1d5ca14610555578063e200c2d014610568578063e8a2a05a1461057b57600080fd5b8063997d2830146104cb5780639b61c9c4146104d45780639c98bcbb146104e75780639d710777146104fa578063a4ecd8851461051a57600080fd5b80638c4cde81116100ff5780638c4cde811461044d5780638da5cb5b1461046d57806390af4e18146104805780639119ba1b146104a357806393b1415b146104c357600080fd5b806371eaf02d146103d2578063740c47d4146103da5780637b5d2534146103ed5780637fd5f268146104185780638c3e12af1461042d57600080fd5b80632c72fdfc116101c95780634b6a08531161018d5780634b6a08531461034757806355ec9233146103675780635e6fef01146103875780636d32dc4b146103ac5780637195df6c146103bf57600080fd5b80632c72fdfc146102f05780633568cda01461031057806337867c94146103185780633ad10d971461032157806349c803af1461033457600080fd5b8063152af8ff11610210578063152af8ff1461028c5780631537052e146102af57806320c78879146102c2578063254c9e8e146102d5578063292ca166146102dd57600080fd5b806308e2b625146102425780630f28c97d1461025e5780631089f5ed1461026457806311429a9814610277575b600080fd5b61024b60075481565b6040519081526020015b60405180910390f35b4261024b565b61024b610272366004613060565b61058c565b61028a6102853660046131fd565b61078c565b005b61029f61029a3660046132d7565b610a14565b604051610255949392919061333f565b61028a6102bd366004613060565b610b5b565b61024b6102d0366004613060565b610cb9565b61024b600481565b61024b6102eb366004613060565b610d3b565b6103036102fe366004613060565b610de8565b604051610255919061337d565b61024b600281565b61024b60065481565b61028a61032f3660046132d7565b611045565b61028a61034236600461341f565b611150565b61024b610355366004613060565b60046020526000908152604090205481565b61024b610375366004613060565b60086020526000908152604090205481565b61039a610395366004613060565b61144a565b604051610255969594939291906134b1565b61028a6103ba366004613060565b611596565b61028a6103cd3660046134fe565b611731565b60075461024b565b61028a6103e8366004613060565b6119e5565b600554610400906001600160a01b031681565b6040516001600160a01b039091168152602001610255565b610420611c1f565b60405161025591906135df565b61044061043b366004613060565b611ed4565b6040516102559190613638565b61046061045b366004613060565b611fc4565b604051610255919061364b565b600054610400906001600160a01b031681565b61049361048e366004613060565b61209c565b6040519015158152602001610255565b61024b6104b1366004613060565b60009081526008602052604090205490565b61024b6120ef565b61024b60015481565b61028a6104e236600461368e565b612105565b61028a6104f5366004613060565b612151565b61050d610508366004613060565b612229565b60405161025591906136b7565b60065461024b565b610535610530366004613060565b612416565b60405161025591906136ca565b610493610550366004613060565b612719565b61028a6105633660046132d7565b612759565b61028a61057636600461376a565b612aee565b61024b610589366004613060565b90565b600080546001600160a01b031633146105c05760405162461bcd60e51b81526004016105b79061384d565b60405180910390fd5b60046007541015806105e15750600654600090815260086020526040902054155b156106b95760046007541061060b5760068054906000610600836138a5565b909155505060006007555b600560009054906101000a90046001600160a01b03166001600160a01b031663575185ed6040518163ffffffff1660e01b81526004016020604051808303816000875af1158015610660573d6000803e3d6000fd5b505050506040513d601f19601f8201168201806040525081019061068491906138be565b506106b96040518060400160405280601081526020016f437265617465642067726f757020257360801b815250600654612e3c565b600554600654604051631783efc360e01b81526001600160a01b0390921691631783efc3916106f5918690600401918252602082015260400190565b600060405180830381600087803b15801561070f57600080fd5b505af1158015610723573d6000803e3d6000fd5b50506006546000908152600860205260408120805493509150610745836138a5565b90915550506007805490600061075a836138a5565b91905055506107846040518060600160405280602a8152602001613b8c602a913983600654612e81565b505060065490565b6000546001600160a01b031633146107b65760405162461bcd60e51b81526004016105b79061384d565b8082106108015760405162461bcd60e51b815260206004820152601960248201527824b73b30b634b21032b632b1ba34b7b710323ab930ba34b7b760391b60448201526064016105b7565b8484511461084c5760405162461bcd60e51b8152602060048201526018602482015277088c2e8c240869288e640c6deeadce840dad2e6dac2e8c6d60431b60448201526064016105b7565b848351146108985760405162461bcd60e51b8152602060048201526019602482015278092dac2ceca40869288e640c6deeadce840dad2e6dac2e8c6d603b1b60448201526064016105b7565b60018054600091826108a9836138a5565b909155506000818152600260205260409020909150806108c98a82613959565b50600181016108d88982613959565b5060048101805461ffff19169055600281018490556003810183905560005b878110156109c9578160050160405180608001604052806000815260200160001515815260200189848151811061093057610930613a17565b6020026020010151815260200188848151811061094f5761094f613a17565b602090810291909101810151909152825460018082018555600094855293829020835160049092020190815590820151928101805460ff191693151593909317909255604081015190919060028201906109a99082613959565b50606082015160038201906109be9082613959565b5050506001016108f7565b507fe17b7d13c79641f1437d6ead12dd2dd76a16667bb88f963398ed5dcd3e2bf28f828a86868b604051610a01959493929190613a2d565b60405180910390a1505050505050505050565b6003602090815260009283526040808420909152908252902080548190610a3a906138d7565b80601f0160208091040260200160405190810160405280929190818152602001828054610a66906138d7565b8015610ab35780601f10610a8857610100808354040283529160200191610ab3565b820191906000526020600020905b815481529060010190602001808311610a9657829003601f168201915b505050505090806001018054610ac8906138d7565b80601f0160208091040260200160405190810160405280929190818152602001828054610af4906138d7565b8015610b415780601f10610b1657610100808354040283529160200191610b41565b820191906000526020600020905b815481529060010190602001808311610b2457829003601f168201915b50505050600283015460039093015491929160ff16905084565b6000546001600160a01b03163314610b855760405162461bcd60e51b81526004016105b79061384d565b806001548110610ba75760405162461bcd60e51b81526004016105b790613a63565b60008281526002602052604090206004810154610100900460ff1615610c0f5760405162461bcd60e51b815260206004820152601d60248201527f456c656374696f6e20697320616c72656164792066696e616c697a656400000060448201526064016105b7565b600481015460ff168015610c27575080600301544210155b15610c4b5760048101805461ffff1916610100179055610c4683612ec8565b505050565b8060030154421015610c9f5760405162461bcd60e51b815260206004820152601a60248201527f456c656374696f6e20686173206e6f7420656e6465642079657400000000000060448201526064016105b7565b60048101805461ffff1916610100179055610c4683612ec8565b6000816001548110610cdd5760405162461bcd60e51b81526004016105b790613a63565b60008381526004602052604081205490805b82811015610d30576000868152600360208181526040808420858552909152909120015460ff16610d285781610d24816138a5565b9250505b600101610cef565b509250505b50919050565b6000816001548110610d5f5760405162461bcd60e51b81526004016105b790613a63565b600083815260026020526040812090805b6005830154811015610ddf5781836005018281548110610d9257610d92613a17565b9060005260206000209060040201600001541115610dd757826005018181548110610dbf57610dbf613a17565b90600052602060002090600402016000015491508094505b600101610d70565b50505050919050565b6060816001548110610e0c5760405162461bcd60e51b81526004016105b790613a63565b600083815260026020526040812060058101549091906001600160401b03811115610e3957610e39613079565b604051908082528060200260200182016040528015610e9757816020015b610e8460405180608001604052806000815260200160001515815260200160608152602001606081525090565b815260200190600190039081610e575790505b50905060005b6005830154811015610d3057826005018181548110610ebe57610ebe613a17565b9060005260206000209060040201604051806080016040529081600082015481526020016001820160009054906101000a900460ff16151515158152602001600282018054610f0c906138d7565b80601f0160208091040260200160405190810160405280929190818152602001828054610f38906138d7565b8015610f855780601f10610f5a57610100808354040283529160200191610f85565b820191906000526020600020905b815481529060010190602001808311610f6857829003601f168201915b50505050508152602001600382018054610f9e906138d7565b80601f0160208091040260200160405190810160405280929190818152602001828054610fca906138d7565b80156110175780601f10610fec57610100808354040283529160200191611017565b820191906000526020600020905b815481529060010190602001808311610ffa57829003601f168201915b50505050508152505082828151811061103257611032613a17565b6020908102919091010152600101610e9d565b6000546001600160a01b0316331461106f5760405162461bcd60e51b81526004016105b79061384d565b8160015481106110915760405162461bcd60e51b81526004016105b790613a63565b60008381526003602081815260408084208685529091529091209081015460ff16156110ff5760405162461bcd60e51b815260206004820152601a60248201527f50726f706f73616c20616c72656164792070726f63657373656400000000000060448201526064016105b7565b60038101805460ff1916600117905560405184907faa908072acca441e9819cc9cabe3b92771e640ba8c6833c952520c9bc9b68c81906111429086815260200190565b60405180910390a250505050565b8560015481106111725760405162461bcd60e51b81526004016105b790613a63565b6000878152600260205260409020600481015460ff166111c85760405162461bcd60e51b8152602060048201526011602482015270456c656374696f6e20696e61637469766560781b60448201526064016105b7565b806002015442101561121c5760405162461bcd60e51b815260206004820152601960248201527f456c656374696f6e20686173206e6f7420737461727465642e0000000000000060448201526064016105b7565b80600301544211156112665760405162461bcd60e51b815260206004820152601360248201527222b632b1ba34b7b7103430b99032b73232b21760691b60448201526064016105b7565b600581015487106112b95760405162461bcd60e51b815260206004820152601760248201527f496e76616c69642070726f706f73616c20696e6465782e00000000000000000060448201526064016105b7565b6006548611156112ff5760405162461bcd60e51b815260206004820152601160248201527024b73b30b634b21033b937bab81024a21760791b60448201526064016105b7565b60008760405160200161131491815260200190565b60408051601f19818403018152828252805160209182012060c0840183526002845290830189905282820188905260608301819052608083018c905260a08301879052600554915163d0d898dd60e01b81529093508b92916001600160a01b03169063d0d898dd9061138c908c908590600401613a9a565b600060405180830381600087803b1580156113a657600080fd5b505af11580156113ba573d6000803e3d6000fd5b505050506001846005018b815481106113d5576113d5613a17565b906000526020600020906004020160000160008282546113f59190613b0a565b9091555050604080518b8152602081018590529081018890528b907fdd1a267f30a0a2c633e51e6caaec32f80ca1210e0465fb65e4df939b60b2ad729060600160405180910390a25050505050505050505050565b600260205260009081526040902080548190611465906138d7565b80601f0160208091040260200160405190810160405280929190818152602001828054611491906138d7565b80156114de5780601f106114b3576101008083540402835291602001916114de565b820191906000526020600020905b8154815290600101906020018083116114c157829003601f168201915b5050505050908060010180546114f3906138d7565b80601f016020809104026020016040519081016040528092919081815260200182805461151f906138d7565b801561156c5780601f106115415761010080835404028352916020019161156c565b820191906000526020600020905b81548152906001019060200180831161154f57829003601f168201915b50505050600283015460038401546004909401549293909290915060ff8082169161010090041686565b6000546001600160a01b031633146115c05760405162461bcd60e51b81526004016105b79061384d565b8060015481106115e25760405162461bcd60e51b81526004016105b790613a63565b60008281526002602052604090206004015460ff16156116445760405162461bcd60e51b815260206004820152601860248201527f456c656374696f6e20616c7265616479206163746976652e000000000000000060448201526064016105b7565b600082815260026020819052604090912001544210156116b25760405162461bcd60e51b8152602060048201526024808201527f456c656374696f6e2073746172742074696d6520686173206e6f7420726561636044820152633432b21760e11b60648201526084016105b7565b60008281526002602052604090206003015442106117125760405162461bcd60e51b815260206004820152601d60248201527f456c656374696f6e20656e642074696d6520686173207061737365642e00000060448201526064016105b7565b506000908152600260205260409020600401805460ff19166001179055565b8260015481106117535760405162461bcd60e51b81526004016105b790613a63565b6000848152600260205260409020600481015460ff16156117cc5760405162461bcd60e51b815260206004820152602d60248201527f43616e6e6f74207375626d69742070726f706f73616c7320746f20616e20616360448201526c3a34bb329032b632b1ba34b7b760991b60648201526084016105b7565b6004810154610100900460ff161561183e5760405162461bcd60e51b815260206004820152602f60248201527f43616e6e6f74207375626d69742070726f706f73616c7320746f20612066696e60448201526e30b634bd32b21032b632b1ba34b7b760891b60648201526084016105b7565b806002015442106118ab5760405162461bcd60e51b815260206004820152603160248201527f43616e6e6f74207375626d69742070726f706f73616c7320616674657220656c604482015270656374696f6e2073746172742074696d6560781b60648201526084016105b7565b60008451116119065760405162461bcd60e51b815260206004820152602160248201527f50726f706f73616c2064617461204349442063616e6e6f7420626520656d70746044820152607960f81b60648201526084016105b7565b600085815260046020526040812080549082611921836138a5565b9091555060408051608081018252878152602080820188905242828401526000606083018190528a8152600382528381208582529091529190912081519293509091819061196f9082613959565b50602082015160018201906119849082613959565b5060408281015160028301556060909201516003909101805460ff19169115159190911790555181815286907f57a43e96e43abb5d2a4d2a1b2722327902c2d041cfb4d5523f0511afff5201479060200160405180910390a2505050505050565b6000546001600160a01b03163314611a0f5760405162461bcd60e51b81526004016105b79061384d565b806001548110611a315760405162461bcd60e51b81526004016105b790613a63565b6000828152600260205260409020600481015460ff1615611a945760405162461bcd60e51b815260206004820181905260248201527f43616e6e6f742064656c65746520616e2061637469766520656c656374696f6e60448201526064016105b7565b6004810154610100900460ff1615611af95760405162461bcd60e51b815260206004820152602260248201527f43616e6e6f742064656c65746520612066696e616c697a656420656c6563746960448201526137b760f11b60648201526084016105b7565b6000816000018054611b0a906138d7565b80601f0160208091040260200160405190810160405280929190818152602001828054611b36906138d7565b8015611b835780601f10611b5857610100808354040283529160200191611b83565b820191906000526020600020905b815481529060010190602001808311611b6657829003601f168201915b50505060008781526002602052604081209394509150611ba590508282612faf565b611bb3600183016000612faf565b6000600283018190556003830181905560048301805461ffff19169055611bde906005840190612fe9565b50507f063531ae3a0f1057c87a7e78db08a998018531f14d1d9ecf6c40c00d19829bf48482604051611c11929190613b23565b60405180910390a150505050565b60606000805b600154811015611c665760008181526002602052604081208054611c48906138d7565b90501115611c5e5781611c5a816138a5565b9250505b600101611c25565b506000816001600160401b03811115611c8157611c81613079565b604051908082528060200260200182016040528015611cf657816020015b611ce36040518060e0016040528060008152602001606081526020016060815260200160008152602001600081526020016000151581526020016000151581525090565b815260200190600190039081611c9f5790505b5090506000805b600154811015611ecb57600081815260026020526040812080549091908290611d25906138d7565b90501115611ec2576040518060e00160405280838152602001826000018054611d4d906138d7565b80601f0160208091040260200160405190810160405280929190818152602001828054611d79906138d7565b8015611dc65780601f10611d9b57610100808354040283529160200191611dc6565b820191906000526020600020905b815481529060010190602001808311611da957829003601f168201915b50505050508152602001826001018054611ddf906138d7565b80601f0160208091040260200160405190810160405280929190818152602001828054611e0b906138d7565b8015611e585780601f10611e2d57610100808354040283529160200191611e58565b820191906000526020600020905b815481529060010190602001808311611e3b57829003601f168201915b50505091835250506002830154602082015260038301546040820152600483015460ff808216151560608401526101009091041615156080909101528451859085908110611ea857611ea8613a17565b60200260200101819052508280611ebe906138a5565b9350505b50600101611cfd565b50909392505050565b6060816001548110611ef85760405162461bcd60e51b81526004016105b790613a63565b6000838152600260205260409020600501611f1284610d3b565b81548110611f2257611f22613a17565b90600052602060002090600402016002018054611f3e906138d7565b80601f0160208091040260200160405190810160405280929190818152602001828054611f6a906138d7565b8015611fb75780601f10611f8c57610100808354040283529160200191611fb7565b820191906000526020600020905b815481529060010190602001808311611f9a57829003601f168201915b5050505050915050919050565b6060816001548110611fe85760405162461bcd60e51b81526004016105b790613a63565b600083815260026020526040812060058101549091906001600160401b0381111561201557612015613079565b60405190808252806020026020018201604052801561203e578160200160208202803683370190505b50905060005b6005830154811015610d305782600501818154811061206557612065613a17565b90600052602060002090600402016000015482828151811061208957612089613a17565b6020908102919091010152600101612044565b6000818152600260205260408120600481015460ff161580156120c957506004810154610100900460ff16155b80156120d9575080600201544210155b80156120e85750806003015442105b9392505050565b600060065460016121009190613b0a565b905090565b6000546001600160a01b0316331461212f5760405162461bcd60e51b81526004016105b79061384d565b600580546001600160a01b0319166001600160a01b0392909216919091179055565b6000546001600160a01b0316331461217b5760405162461bcd60e51b81526004016105b79061384d565b80600154811061219d5760405162461bcd60e51b81526004016105b790613a63565b60008281526002602052604090206004015460ff166121fe5760405162461bcd60e51b815260206004820152601760248201527f456c656374696f6e206973206e6f74206163746976652e00000000000000000060448201526064016105b7565b6000828152600260205260409020600401805461ffff191661010017905561222582612ec8565b5050565b61226d6040518060e0016040528060008152602001606081526020016060815260200160008152602001600081526020016000151581526020016000151581525090565b600154821061228e5760405162461bcd60e51b81526004016105b790613a63565b60006002600084815260200190815260200160002090506040518060e001604052808481526020018260000180546122c5906138d7565b80601f01602080910402602001604051908101604052809291908181526020018280546122f1906138d7565b801561233e5780601f106123135761010080835404028352916020019161233e565b820191906000526020600020905b81548152906001019060200180831161232157829003601f168201915b50505050508152602001826001018054612357906138d7565b80601f0160208091040260200160405190810160405280929190818152602001828054612383906138d7565b80156123d05780601f106123a5576101008083540402835291602001916123d0565b820191906000526020600020905b8154815290600101906020018083116123b357829003601f168201915b5050509183525050600283015460208201526003830154604082015260049092015460ff8082161515606085015261010090910416151560809092019190915292915050565b606081600154811061243a5760405162461bcd60e51b81526004016105b790613a63565b60008381526004602052604081205490805b8281101561248d576000868152600360208181526040808420858552909152909120015460ff166124855781612481816138a5565b9250505b60010161244c565b506000816001600160401b038111156124a8576124a8613079565b60405190808252806020026020018201604052801561250d57816020015b6124fa6040518060a00160405280600081526020016060815260200160608152602001600081526020016000151581525090565b8152602001906001900390816124c65790505b5090506000805b8481101561270d576000888152600360208181526040808420858552909152909120015460ff16612705576040805160a08101825282815260008a815260036020908152838220858352815292902080549192830191612573906138d7565b80601f016020809104026020016040519081016040528092919081815260200182805461259f906138d7565b80156125ec5780601f106125c1576101008083540402835291602001916125ec565b820191906000526020600020905b8154815290600101906020018083116125cf57829003601f168201915b505050918352505060008a815260036020908152604080832086845282529091206001018054919092019190612621906138d7565b80601f016020809104026020016040519081016040528092919081815260200182805461264d906138d7565b801561269a5780601f1061266f5761010080835404028352916020019161269a565b820191906000526020600020905b81548152906001019060200180831161267d57829003601f168201915b505050918352505060008a81526003602081815260408084208785528083528185206002810154848801529488905290915291015460ff16151591015283518490849081106126eb576126eb613a17565b60200260200101819052508180612701906138a5565b9250505b600101612514565b50909695505050505050565b6000818152600260205260408120600481015460ff16801561273f575080600301544210155b80156120e8575060040154610100900460ff161592915050565b6000546001600160a01b031633146127835760405162461bcd60e51b81526004016105b79061384d565b8160015481106127a55760405162461bcd60e51b81526004016105b790613a63565b6000838152600360208181526040808420868552825280842087855260029092529092209082015460ff161561281d5760405162461bcd60e51b815260206004820152601a60248201527f50726f706f73616c20616c72656164792070726f63657373656400000000000060448201526064016105b7565b600481015460ff16156128895760405162461bcd60e51b815260206004820152602e60248201527f43616e6e6f74206163636570742070726f706f73616c7320666f7220616e206160448201526d31ba34bb329032b632b1ba34b7b760911b60648201526084016105b7565b6004810154610100900460ff16156128fc5760405162461bcd60e51b815260206004820152603060248201527f43616e6e6f74206163636570742070726f706f73616c7320666f72206120666960448201526f3730b634bd32b21032b632b1ba34b7b760811b60648201526084016105b7565b60038201805460ff191660011790556040805160808101825260008082526020820152835460058401928201908590612934906138d7565b80601f0160208091040260200160405190810160405280929190818152602001828054612960906138d7565b80156129ad5780601f10612982576101008083540402835291602001916129ad565b820191906000526020600020905b81548152906001019060200180831161299057829003601f168201915b505050505081526020018460010180546129c6906138d7565b80601f01602080910402602001604051908101604052809291908181526020018280546129f2906138d7565b8015612a3f5780601f10612a1457610100808354040283529160200191612a3f565b820191906000526020600020905b815481529060010190602001808311612a2257829003601f168201915b5050509190925250508154600180820184556000938452602093849020835160049093020191825592820151928101805460ff19169315159390931790925560408101519091906002820190612a959082613959565b5060608201516003820190612aaa9082613959565b505050847ff956a500d6c2e87a488e6827b381acae13cbf34caafe6373127af401151c7f2785604051612adf91815260200190565b60405180910390a25050505050565b6000546001600160a01b03163314612b185760405162461bcd60e51b81526004016105b79061384d565b876001548110612b3a5760405162461bcd60e51b81526004016105b790613a63565b6000898152600260205260409020600481015460ff1615612b9d5760405162461bcd60e51b815260206004820181905260248201527f43616e6e6f742075706461746520616e2061637469766520656c656374696f6e60448201526064016105b7565b6004810154610100900460ff1615612c025760405162461bcd60e51b815260206004820152602260248201527f43616e6e6f742075706461746520612066696e616c697a656420656c6563746960448201526137b760f11b60648201526084016105b7565b828410612c4d5760405162461bcd60e51b815260206004820152601960248201527824b73b30b634b21032b632b1ba34b7b710323ab930ba34b7b760391b60448201526064016105b7565b86865114612c985760405162461bcd60e51b8152602060048201526018602482015277088c2e8c240869288e640c6deeadce840dad2e6dac2e8c6d60431b60448201526064016105b7565b86855114612ce45760405162461bcd60e51b8152602060048201526019602482015278092dac2ceca40869288e640c6deeadce840dad2e6dac2e8c6d603b1b60448201526064016105b7565b80612cef8a82613959565b5060018101612cfe8982613959565b506002810184905560038101839055612d1b600582016000612fe9565b60005b87811015612df05781600501604051806080016040528060008152602001600015158152602001898481518110612d5757612d57613a17565b60200260200101518152602001888481518110612d7657612d76613a17565b602090810291909101810151909152825460018082018555600094855293829020835160049092020190815590820151928101805460ff19169315159390931790925560408101519091906002820190612dd09082613959565b5060608201516003820190612de59082613959565b505050600101612d1e565b507fe17b7d13c79641f1437d6ead12dd2dd76a16667bb88f963398ed5dcd3e2bf28f8a8a86868b604051612e28959493929190613a2d565b60405180910390a150505050505050505050565b6122258282604051602401612e52929190613b44565b60408051601f198184030181529190526020810180516001600160e01b0316632d839cb360e21b179052612f82565b610c46838383604051602401612e9993929190613b66565b60408051601f198184030181529190526020810180516001600160e01b031663ca47c4eb60e01b179052612f82565b6000612ed382610d3b565b60008381526002602052604081209192505b6005820154811015612f33576000826005018281548110612f0857612f08613a17565b600091825260209091206004909102016001908101805460ff19169215159290921790915501612ee5565b50600083815260026020526040902060050180546001919084908110612f5b57612f5b613a17565b60009182526020909120600490910201600101805460ff1916911515919091179055505050565b612f8b81612f8e565b50565b60006a636f6e736f6c652e6c6f679050600080835160208501845afa505050565b508054612fbb906138d7565b6000825580601f10612fcb575050565b601f016020900490600052602060002090810190612f8b919061300a565b5080546000825560040290600052602060002090810190612f8b9190613023565b5b8082111561301f576000815560010161300b565b5090565b8082111561301f57600080825560018201805460ff191690556130496002830182612faf565b613057600383016000612faf565b50600401613023565b60006020828403121561307257600080fd5b5035919050565b634e487b7160e01b600052604160045260246000fd5b60405161010081016001600160401b03811182821017156130b2576130b2613079565b60405290565b604051601f8201601f191681016001600160401b03811182821017156130e0576130e0613079565b604052919050565b600082601f8301126130f957600080fd5b81356001600160401b0381111561311257613112613079565b613125601f8201601f19166020016130b8565b81815284602083860101111561313a57600080fd5b816020850160208301376000918101602001919091529392505050565b600082601f83011261316857600080fd5b81356001600160401b0381111561318157613181613079565b8060051b613191602082016130b8565b918252602081850181019290810190868411156131ad57600080fd5b6020860192505b838310156131f35782356001600160401b038111156131d257600080fd5b6131e1886020838a01016130e8565b835250602092830192909101906131b4565b9695505050505050565b600080600080600080600060e0888a03121561321857600080fd5b87356001600160401b0381111561322e57600080fd5b61323a8a828b016130e8565b97505060208801356001600160401b0381111561325657600080fd5b6132628a828b016130e8565b9650506040880135945060608801356001600160401b0381111561328557600080fd5b6132918a828b01613157565b94505060808801356001600160401b038111156132ad57600080fd5b6132b98a828b01613157565b979a969950949793969560a0850135955060c0909401359392505050565b600080604083850312156132ea57600080fd5b50508035926020909101359150565b6000815180845260005b8181101561331f57602081850181015186830182015201613303565b506000602082860101526020601f19601f83011685010191505092915050565b60808152600061335260808301876132f9565b828103602084015261336481876132f9565b6040840195909552505090151560609091015292915050565b6000602082016020835280845180835260408501915060408160051b86010192506020860160005b8281101561341357603f198786030184528151805186526020810151151560208701526040810151608060408801526133e160808801826132f9565b90506060820151915086810360608801526133fc81836132f9565b9650505060209384019391909101906001016133a5565b50929695505050505050565b6000806000806000806101a0878903121561343957600080fd5b863595506020870135945060408701359350606087013592506080870135915060bf8701881361346857600080fd5b61347061308f565b806101a089018a81111561348357600080fd5b60a08a015b818110156134a0578035845260209384019301613488565b505080925050509295509295509295565b60c0815260006134c460c08301896132f9565b82810360208401526134d681896132f9565b6040840197909752505060608101939093529015156080830152151560a09091015292915050565b60008060006060848603121561351357600080fd5b8335925060208401356001600160401b0381111561353057600080fd5b61353c868287016130e8565b92505060408401356001600160401b0381111561355857600080fd5b613564868287016130e8565b9150509250925092565b805182526000602082015160e0602085015261358d60e08501826132f9565b9050604083015184820360408601526135a682826132f9565b915050606083015160608501526080830151608085015260a0830151151560a085015260c0830151151560c08501528091505092915050565b6000602082016020835280845180835260408501915060408160051b86010192506020860160005b8281101561341357603f1987860301845261362385835161356e565b94506020938401939190910190600101613607565b6020815260006120e860208301846132f9565b602080825282518282018190526000918401906040840190835b81811015613683578351835260209384019390920191600101613665565b509095945050505050565b6000602082840312156136a057600080fd5b81356001600160a01b03811681146120e857600080fd5b6020815260006120e8602083018461356e565b6000602082016020835280845180835260408501915060408160051b86010192506020860160005b8281101561341357603f19878603018452815180518652602081015160a0602088015261372260a08801826132f9565b90506040820151878203604089015261373b82826132f9565b606084810151908a015260809384015115159390980192909252505060209384019391909101906001016136f2565b600080600080600080600080610100898b03121561378757600080fd5b8835975060208901356001600160401b038111156137a457600080fd5b6137b08b828c016130e8565b97505060408901356001600160401b038111156137cc57600080fd5b6137d88b828c016130e8565b9650506060890135945060808901356001600160401b038111156137fb57600080fd5b6138078b828c01613157565b94505060a08901356001600160401b0381111561382357600080fd5b61382f8b828c01613157565b989b979a5095989497939693955050505060c08201359160e0013590565b60208082526022908201527f4f6e6c79206f776e65722063616e2063616c6c20746869732066756e6374696f604082015261371760f11b606082015260800190565b634e487b7160e01b600052601160045260246000fd5b6000600182016138b7576138b761388f565b5060010190565b6000602082840312156138d057600080fd5b5051919050565b600181811c908216806138eb57607f821691505b602082108103610d3557634e487b7160e01b600052602260045260246000fd5b601f821115610c4657806000526020600020601f840160051c810160208510156139325750805b601f840160051c820191505b81811015613952576000815560010161393e565b5050505050565b81516001600160401b0381111561397257613972613079565b6139868161398084546138d7565b8461390b565b6020601f8211600181146139ba57600083156139a25750848201515b600019600385901b1c1916600184901b178455613952565b600084815260208120601f198516915b828110156139ea57878501518255602094850194600190920191016139ca565b5084821015613a085786840151600019600387901b60f8161c191681555b50505050600190811b01905550565b634e487b7160e01b600052603260045260246000fd5b85815260a060208201526000613a4660a08301876132f9565b604083019590955250606081019290925260809091015292915050565b60208082526018908201527f456c656374696f6e20646f6573206e6f742065786973742e0000000000000000604082015260600190565b60006101c08201905083825282516020830152602083015160408301526040830151606083015260608301516080830152608083015160a083015260a083015160c0830160005b6008811015613b00578251825260209283019290910190600101613ae1565b5050509392505050565b80820180821115613b1d57613b1d61388f565b92915050565b828152604060208201526000613b3c60408301846132f9565b949350505050565b604081526000613b5760408301856132f9565b90508260208301529392505050565b606081526000613b7960608301866132f9565b6020830194909452506040015291905056fe6964656e74697479436f6d6d69746d656e7420257320616464656420746f2047524f55505f4944202573a26469706673582212204f79f0734aa44e9e1b78bef726900160ee5e1421b4ae1f0ac482a46eac669b5f64736f6c634300081c0033",
  "linkReferences": {},
  "deployedLinkReferences": {}
}