{
  "_format": "hh-sol-artifact-1",
  "contractName": "ProjectPollLedger",
  "sourceName": "contracts/ProjectPollLedger.sol",
  "abi": [
    {
      "inputs": [
        {
          "internalType": "address",
          "name": "semaphoreAddress",
          "type": "address"
        }
      ],
      "stateMutability": "nonpayable",
      "type": "constructor"
    },
    {
      "anonymous": false,
      "inputs": [
        {
          "indexed": false,
          "internalType": "uint256",
          "name": "electionId",
          "type": "uint256"
        },
        {
          "indexed": false,
          "internalType": "string",
          "name": "name",
          "type": "string"
        },
        {
          "indexed": false,
          "internalType": "uint256",
          "name": "startTime",
          "type": "uint256"
        },
        {
          "indexed": false,
          "internalType": "uint256",
          "name": "endTime",
          "type": "uint256"
        },
        {
          "indexed": false,
          "internalType": "uint256",
          "name": "proposalCount",
          "type": "uint256"
        }
      ],
      "name": "ElectionCreated",
      "type": "event"
    },
    {
      "anonymous": false,
      "inputs": [
        {
          "indexed": false,
          "internalType": "uint256",
          "name": "electionId",
          "type": "uint256"
        },
        {
          "indexed": false,
          "internalType": "string",
          "name": "name",
          "type": "string"
        }
      ],
      "name": "ElectionDeleted",
      "type": "event"
    },
    {
      "anonymous": false,
      "inputs": [
        {
          "indexed": true,
          "internalType": "uint256",
          "name": "electionId",
          "type": "uint256"
        },
        {
          "indexed": false,
          "internalType": "uint256",
          "name": "proposalId",
          "type": "uint256"
        }
      ],
      "name": "ProposalAccepted",
      "type": "event"
    },
    {
      "anonymous": false,
      "inputs": [
        {
          "indexed": true,
          "internalType": "uint256",
          "name": "electionId",
          "type": "uint256"
        },
        {
          "indexed": false,
          "internalType": "uint256",
          "name": "proposalId",
          "type": "uint256"
        }
      ],
      "name": "ProposalDeclined",
      "type": "event"
    },
    {
      "anonymous": false,
      "inputs": [
        {
          "indexed": true,
          "internalType": "uint256",
          "name": "electionId",
          "type": "uint256"
        },
        {
          "indexed": false,
          "internalType": "uint256",
          "name": "proposalId",
          "type": "uint256"
        }
      ],
      "name": "ProposalSubmitted",
      "type": "event"
    },
    {
      "anonymous": false,
      "inputs": [
        {
          "indexed": true,
          "internalType": "uint256",
          "name": "electionId",
          "type": "uint256"
        },
        {
          "indexed": false,
          "internalType": "uint256",
          "name": "proposalIndex",
          "type": "uint256"
        },
        {
          "indexed": false,
          "internalType": "bytes32",
          "name": "signal",
          "type": "bytes32"
        },
        {
          "indexed": false,
          "internalType": "uint256",
          "name": "nullifierHash",
          "type": "uint256"
        }
      ],
      "name": "VoteCasted",
      "type": "event"
    },
    {
      "inputs": [],
      "name": "GROUP_ID",
      "outputs": [
        {
          "internalType": "uint256",
          "name": "",
          "type": "uint256"
        }
      ],
      "stateMutability": "view",
      "type": "function"
    },
    {
      "inputs": [],
      "name": "MERKLE_TREE_DEPTH",
      "outputs": [
        {
          "internalType": "uint256",
          "name": "",
          "type": "uint256"
        }
      ],
      "stateMutability": "view",
      "type": "function"
    },
    {
      "inputs": [
        {
          "internalType": "uint256",
          "name": "electionId",
          "type": "uint256"
        },
        {
          "internalType": "uint256",
          "name": "proposalId",
          "type": "uint256"
        }
      ],
      "name": "acceptProposal",
      "outputs": [],
      "stateMutability": "nonpayable",
      "type": "function"
    },
    {
      "inputs": [
        {
          "internalType": "uint256",
          "name": "identityCommitment",
          "type": "uint256"
        }
      ],
      "name": "addMember",
      "outputs": [],
      "stateMutability": "nonpayable",
      "type": "function"
    },
    {
      "inputs": [
        {
          "internalType": "uint256",
          "name": "electionId",
          "type": "uint256"
        }
      ],
      "name": "checkVotes",
      "outputs": [
        {
          "internalType": "uint256[]",
          "name": "",
          "type": "uint256[]"
        }
      ],
      "stateMutability": "view",
      "type": "function"
    },
    {
      "inputs": [
        {
          "internalType": "string",
          "name": "name",
          "type": "string"
        },
        {
          "internalType": "string",
          "name": "cityArea",
          "type": "string"
        },
        {
          "internalType": "uint256",
          "name": "proposalCount",
          "type": "uint256"
        },
        {
          "internalType": "string[]",
          "name": "proposalDataCIDs",
          "type": "string[]"
        },
        {
          "internalType": "string[]",
          "name": "proposalImageCIDs",
          "type": "string[]"
        },
        {
          "internalType": "uint256",
          "name": "startTime",
          "type": "uint256"
        },
        {
          "internalType": "uint256",
          "name": "endTime",
          "type": "uint256"
        }
      ],
      "name": "createElection",
      "outputs": [],
      "stateMutability": "nonpayable",
      "type": "function"
    },
    {
      "inputs": [
        {
          "internalType": "uint256",
          "name": "electionId",
          "type": "uint256"
        },
        {
          "internalType": "uint256",
          "name": "proposalId",
          "type": "uint256"
        }
      ],
      "name": "declineProposal",
      "outputs": [],
      "stateMutability": "nonpayable",
      "type": "function"
    },
    {
      "inputs": [
        {
          "internalType": "uint256",
          "name": "electionId",
          "type": "uint256"
        }
      ],
      "name": "deleteElection",
      "outputs": [],
      "stateMutability": "nonpayable",
      "type": "function"
    },
    {
      "inputs": [],
      "name": "electionCount",
      "outputs": [
        {
          "internalType": "uint256",
          "name": "",
          "type": "uint256"
        }
      ],
      "stateMutability": "view",
      "type": "function"
    },
    {
      "inputs": [
        {
          "internalType": "uint256",
          "name": "",
          "type": "uint256"
        }
      ],
      "name": "elections",
      "outputs": [
        {
          "internalType": "string",
          "name": "name",
          "type": "string"
        },
        {
          "internalType": "string",
          "name": "cityArea",
          "type": "string"
        },
        {
          "internalType": "uint256",
          "name": "startTime",
          "type": "uint256"
        },
        {
          "internalType": "uint256",
          "name": "endTime",
          "type": "uint256"
        },
        {
          "internalType": "bool",
          "name": "active",
          "type": "bool"
        },
        {
          "internalType": "bool",
          "name": "finalized",
          "type": "bool"
        }
      ],
      "stateMutability": "view",
      "type": "function"
    },
    {
      "inputs": [
        {
          "internalType": "uint256",
          "name": "electionId",
          "type": "uint256"
        }
      ],
      "name": "endElection",
      "outputs": [],
      "stateMutability": "nonpayable",
      "type": "function"
    },
    {
      "inputs": [
        {
          "internalType": "uint256",
          "name": "electionId",
          "type": "uint256"
        }
      ],
      "name": "finalizeElection",
      "outputs": [],
      "stateMutability": "nonpayable",
      "type": "function"
    },
    {
      "inputs": [],
      "name": "getAllElections",
      "outputs": [
        {
          "components": [
            {
              "internalType": "uint256",
              "name": "electionId",
              "type": "uint256"
            },
            {
              "internalType": "string",
              "name": "name",
              "type": "string"
            },
            {
              "internalType": "string",
              "name": "cityArea",
              "type": "string"
            },
            {
              "internalType": "uint256",
              "name": "startTime",
              "type": "uint256"
            },
            {
              "internalType": "uint256",
              "name": "endTime",
              "type": "uint256"
            },
            {
              "internalType": "bool",
              "name": "active",
              "type": "bool"
            },
            {
              "internalType": "bool",
              "name": "finalized",
              "type": "bool"
            }
          ],
          "internalType": "struct ProjectPollLedger.ElectionView[]",
          "name": "",
          "type": "tuple[]"
        }
      ],
      "stateMutability": "view",
      "type": "function"
    },
    {
      "inputs": [],
      "name": "getCurrentBlockTimestamp",
      "outputs": [
        {
          "internalType": "uint256",
          "name": "",
          "type": "uint256"
        }
      ],
      "stateMutability": "view",
      "type": "function"
    },
    {
      "inputs": [
        {
          "internalType": "uint256",
          "name": "electionId",
          "type": "uint256"
        }
      ],
      "name": "getElection",
      "outputs": [
        {
          "components": [
            {
              "internalType": "uint256",
              "name": "electionId",
              "type": "uint256"
            },
            {
              "internalType": "string",
              "name": "name",
              "type": "string"
            },
            {
              "internalType": "string",
              "name": "cityArea",
              "type": "string"
            },
            {
              "internalType": "uint256",
              "name": "startTime",
              "type": "uint256"
            },
            {
              "internalType": "uint256",
              "name": "endTime",
              "type": "uint256"
            },
            {
              "internalType": "bool",
              "name": "active",
              "type": "bool"
            },
            {
              "internalType": "bool",
              "name": "finalized",
              "type": "bool"
            }
          ],
          "internalType": "struct ProjectPollLedger.ElectionView",
          "name": "",
          "type": "tuple"
        }
      ],
      "stateMutability": "view",
      "type": "function"
    },
    {
      "inputs": [
        {
          "internalType": "uint256",
          "name": "electionId",
          "type": "uint256"
        }
      ],
      "name": "getPendingProposalCount",
      "outputs": [
        {
          "internalType": "uint256",
          "name": "",
          "type": "uint256"
        }
      ],
      "stateMutability": "view",
      "type": "function"
    },
    {
      "inputs": [
        {
          "internalType": "uint256",
          "name": "electionId",
          "type": "uint256"
        }
      ],
      "name": "getPendingProposals",
      "outputs": [
        {
          "components": [
            {
              "internalType": "uint256",
              "name": "proposalId",
              "type": "uint256"
            },
            {
              "internalType": "string",
              "name": "dataCID",
              "type": "string"
            },
            {
              "internalType": "string",
              "name": "imageCID",
              "type": "string"
            },
            {
              "internalType": "uint256",
              "name": "timestamp",
              "type": "uint256"
            },
            {
              "internalType": "bool",
              "name": "processed",
              "type": "bool"
            }
          ],
          "internalType": "struct ProjectPollLedger.PendingProposalView[]",
          "name": "",
          "type": "tuple[]"
        }
      ],
      "stateMutability": "view",
      "type": "function"
    },
    {
      "inputs": [
        {
          "internalType": "uint256",
          "name": "electionId",
          "type": "uint256"
        }
      ],
      "name": "getProposals",
      "outputs": [
        {
          "components": [
            {
              "internalType": "uint256",
              "name": "voteCount",
              "type": "uint256"
            },
            {
              "internalType": "bool",
              "name": "winningProposal",
              "type": "bool"
            },
            {
              "internalType": "string",
              "name": "dataCID",
              "type": "string"
            },
            {
              "internalType": "string",
              "name": "imageCID",
              "type": "string"
            }
          ],
          "internalType": "struct ProjectPollLedger.Proposal[]",
          "name": "",
          "type": "tuple[]"
        }
      ],
      "stateMutability": "view",
      "type": "function"
    },
    {
      "inputs": [
        {
          "internalType": "uint256",
          "name": "electionId",
          "type": "uint256"
        }
      ],
      "name": "getWinnerDataCID",
      "outputs": [
        {
          "internalType": "string",
          "name": "winnerDataCID",
          "type": "string"
        }
      ],
      "stateMutability": "view",
      "type": "function"
    },
    {
      "inputs": [
        {
          "internalType": "uint256",
          "name": "electionId",
          "type": "uint256"
        }
      ],
      "name": "getWinningProposal",
      "outputs": [
        {
          "internalType": "uint256",
          "name": "winningProposal_",
          "type": "uint256"
        }
      ],
      "stateMutability": "view",
      "type": "function"
    },
    {
      "inputs": [
        {
          "internalType": "uint256",
          "name": "electionId",
          "type": "uint256"
        }
      ],
      "name": "hasElectionEnded",
      "outputs": [
        {
          "internalType": "bool",
          "name": "",
          "type": "bool"
        }
      ],
      "stateMutability": "view",
      "type": "function"
    },
    {
      "inputs": [],
      "name": "owner",
      "outputs": [
        {
          "internalType": "address",
          "name": "",
          "type": "address"
        }
      ],
      "stateMutability": "view",
      "type": "function"
    },
    {
      "inputs": [
        {
          "internalType": "uint256",
          "name": "",
          "type": "uint256"
        }
      ],
      "name": "pendingProposalCounts",
      "outputs": [
        {
          "internalType": "uint256",
          "name": "",
          "type": "uint256"
        }
      ],
      "stateMutability": "view",
      "type": "function"
    },
    {
      "inputs": [
        {
          "internalType": "uint256",
          "name": "",
          "type": "uint256"
        },
        {
          "internalType": "uint256",
          "name": "",
          "type": "uint256"
        }
      ],
      "name": "pendingProposals",
      "outputs": [
        {
          "internalType": "string",
          "name": "dataCID",
          "type": "string"
        },
        {
          "internalType": "string",
          "name": "imageCID",
          "type": "string"
        },
        {
          "internalType": "uint256",
          "name": "timestamp",
          "type": "uint256"
        },
        {
          "internalType": "bool",
          "name": "processed",
          "type": "bool"
        }
      ],
      "stateMutability": "view",
      "type": "function"
    },
    {
      "inputs": [],
      "name": "semaphore",
      "outputs": [
        {
          "internalType": "contract ISemaphore",
          "name": "",
          "type": "address"
        }
      ],
      "stateMutability": "view",
      "type": "function"
    },
    {
      "inputs": [
        {
          "internalType": "address",
          "name": "newSemaphoreAddress",
          "type": "address"
        }
      ],
      "name": "setSemaphoreAddress",
      "outputs": [],
      "stateMutability": "nonpayable",
      "type": "function"
    },
    {
      "inputs": [
        {
          "internalType": "uint256",
          "name": "electionId",
          "type": "uint256"
        }
      ],
      "name": "shouldElectionStart",
      "outputs": [
        {
          "internalType": "bool",
          "name": "",
          "type": "bool"
        }
      ],
      "stateMutability": "view",
      "type": "function"
    },
    {
      "inputs": [
        {
          "internalType": "uint256",
          "name": "electionId",
          "type": "uint256"
        }
      ],
      "name": "startElection",
      "outputs": [],
      "stateMutability": "nonpayable",
      "type": "function"
    },
    {
      "inputs": [
        {
          "internalType": "uint256",
          "name": "electionId",
          "type": "uint256"
        },
        {
          "internalType": "string",
          "name": "dataCID",
          "type": "string"
        },
        {
          "internalType": "string",
          "name": "imageCID",
          "type": "string"
        }
      ],
      "name": "submitProposal",
      "outputs": [],
      "stateMutability": "nonpayable",
      "type": "function"
    },
    {
      "inputs": [
        {
          "internalType": "uint256",
          "name": "electionId",
          "type": "uint256"
        },
        {
          "internalType": "string",
          "name": "name",
          "type": "string"
        },
        {
          "internalType": "string",
          "name": "cityArea",
          "type": "string"
        },
        {
          "internalType": "uint256",
          "name": "proposalCount",
          "type": "uint256"
        },
        {
          "internalType": "string[]",
          "name": "proposalDataCIDs",
          "type": "string[]"
        },
        {
          "internalType": "string[]",
          "name": "proposalIPFSCIDs",
          "type": "string[]"
        },
        {
          "internalType": "uint256",
          "name": "startTime",
          "type": "uint256"
        },
        {
          "internalType": "uint256",
          "name": "endTime",
          "type": "uint256"
        }
      ],
      "name": "updateElection",
      "outputs": [],
      "stateMutability": "nonpayable",
      "type": "function"
    },
    {
      "inputs": [
        {
          "internalType": "uint256",
          "name": "electionId",
          "type": "uint256"
        },
        {
          "internalType": "uint256",
          "name": "proposalIndex",
          "type": "uint256"
        },
        {
          "internalType": "uint256",
          "name": "merkleTreeRoot",
          "type": "uint256"
        },
        {
          "internalType": "uint256",
          "name": "nullifierHash",
          "type": "uint256"
        },
        {
          "internalType": "uint256[8]",
          "name": "zkProof",
          "type": "uint256[8]"
        }
      ],
      "name": "vote",
      "outputs": [],
      "stateMutability": "nonpayable",
      "type": "function"
    }
  ],
  "bytecode": "0x60806040526000600155348015601457600080fd5b506040516139873803806139878339810160408190526031916063565b60008054336001600160a01b031991821617909155600580549091166001600160a01b03929092169190911790556091565b600060208284031215607457600080fd5b81516001600160a01b0381168114608a57600080fd5b9392505050565b6138e7806100a06000396000f3fe608060405234801561001057600080fd5b50600436106101e55760003560e01c8063740c47d41161010f578063997d2830116100a2578063ca53b20011610071578063ca53b2001461045c578063cadc68e91461047c578063e1e1d5ca1461048f578063e200c2d0146104a257600080fd5b8063997d28301461040d5780639b61c9c4146104165780639c98bcbb146104295780639d7107771461043c57600080fd5b80638c3e12af116100de5780638c3e12af146103975780638c4cde81146103b75780638da5cb5b146103d757806390af4e18146103ea57600080fd5b8063740c47d41461033157806376805335146103445780637b5d2534146103575780637fd5f2681461038257600080fd5b80632c72fdfc116101875780634dd9c0b5116101565780634dd9c0b5146102de5780635e6fef01146102e65780636d32dc4b1461030b5780637195df6c1461031e57600080fd5b80632c72fdfc146102835780633568cda0146102a35780633ad10d97146102ab5780634b6a0853146102be57600080fd5b8063152af8ff116101c3578063152af8ff146102275780631537052e1461024a57806320c788791461025d578063292ca1661461027057600080fd5b80630f28c97d146101ea5780631089f5ed146101ff57806311429a9814610214575b600080fd5b425b6040519081526020015b60405180910390f35b61021261020d366004612d9f565b6104b5565b005b610212610222366004612f3c565b610574565b61023a610235366004613016565b6107fc565b6040516101f6949392919061307e565b610212610258366004612d9f565b610943565b6101ec61026b366004612d9f565b610aa1565b6101ec61027e366004612d9f565b610b23565b610296610291366004612d9f565b610bd0565b6040516101f691906130bc565b6101ec601481565b6102126102b9366004613016565b610e2d565b6101ec6102cc366004612d9f565b60046020526000908152604090205481565b6101ec600081565b6102f96102f4366004612d9f565b610f38565b6040516101f69695949392919061315e565b610212610319366004612d9f565b611084565b61021261032c3660046131ab565b61121f565b61021261033f366004612d9f565b6114d3565b61021261035236600461321b565b61170d565b60055461036a906001600160a01b031681565b6040516001600160a01b0390911681526020016101f6565b61038a6119c1565b6040516101f69190613316565b6103aa6103a5366004612d9f565b611c76565b6040516101f6919061336f565b6103ca6103c5366004612d9f565b611d66565b6040516101f69190613382565b60005461036a906001600160a01b031681565b6103fd6103f8366004612d9f565b611e3e565b60405190151581526020016101f6565b6101ec60015481565b6102126104243660046133c5565b611e91565b610212610437366004612d9f565b611edd565b61044f61044a366004612d9f565b611fb5565b6040516101f691906133ee565b61046f61046a366004612d9f565b6121a2565b6040516101f69190613401565b6103fd61048a366004612d9f565b6124a5565b61021261049d366004613016565b6124e5565b6102126104b03660046134a1565b61287a565b6000546001600160a01b031633146104e85760405162461bcd60e51b81526004016104df90613584565b60405180910390fd5b600554604051631783efc360e01b815260006004820152602481018390526001600160a01b0390911690631783efc390604401600060405180830381600087803b15801561053557600080fd5b505af1158015610549573d6000803e3d6000fd5b505050506105716040518060600160405280602a8152602001613888602a9139826000612bc8565b50565b6000546001600160a01b0316331461059e5760405162461bcd60e51b81526004016104df90613584565b8082106105e95760405162461bcd60e51b815260206004820152601960248201527824b73b30b634b21032b632b1ba34b7b710323ab930ba34b7b760391b60448201526064016104df565b848451146106345760405162461bcd60e51b8152602060048201526018602482015277088c2e8c240869288e640c6deeadce840dad2e6dac2e8c6d60431b60448201526064016104df565b848351146106805760405162461bcd60e51b8152602060048201526019602482015278092dac2ceca40869288e640c6deeadce840dad2e6dac2e8c6d603b1b60448201526064016104df565b6001805460009182610691836135dc565b909155506000818152600260205260409020909150806106b18a82613677565b50600181016106c08982613677565b5060048101805461ffff19169055600281018490556003810183905560005b878110156107b1578160050160405180608001604052806000815260200160001515815260200189848151811061071857610718613735565b6020026020010151815260200188848151811061073757610737613735565b602090810291909101810151909152825460018082018555600094855293829020835160049092020190815590820151928101805460ff191693151593909317909255604081015190919060028201906107919082613677565b50606082015160038201906107a69082613677565b5050506001016106df565b507fe17b7d13c79641f1437d6ead12dd2dd76a16667bb88f963398ed5dcd3e2bf28f828a86868b6040516107e995949392919061374b565b60405180910390a1505050505050505050565b6003602090815260009283526040808420909152908252902080548190610822906135f5565b80601f016020809104026020016040519081016040528092919081815260200182805461084e906135f5565b801561089b5780601f106108705761010080835404028352916020019161089b565b820191906000526020600020905b81548152906001019060200180831161087e57829003601f168201915b5050505050908060010180546108b0906135f5565b80601f01602080910402602001604051908101604052809291908181526020018280546108dc906135f5565b80156109295780601f106108fe57610100808354040283529160200191610929565b820191906000526020600020905b81548152906001019060200180831161090c57829003601f168201915b50505050600283015460039093015491929160ff16905084565b6000546001600160a01b0316331461096d5760405162461bcd60e51b81526004016104df90613584565b80600154811061098f5760405162461bcd60e51b81526004016104df90613781565b60008281526002602052604090206004810154610100900460ff16156109f75760405162461bcd60e51b815260206004820152601d60248201527f456c656374696f6e20697320616c72656164792066696e616c697a656400000060448201526064016104df565b600481015460ff168015610a0f575080600301544210155b15610a335760048101805461ffff1916610100179055610a2e83612c0f565b505050565b8060030154421015610a875760405162461bcd60e51b815260206004820152601a60248201527f456c656374696f6e20686173206e6f7420656e6465642079657400000000000060448201526064016104df565b60048101805461ffff1916610100179055610a2e83612c0f565b6000816001548110610ac55760405162461bcd60e51b81526004016104df90613781565b60008381526004602052604081205490805b82811015610b18576000868152600360208181526040808420858552909152909120015460ff16610b105781610b0c816135dc565b9250505b600101610ad7565b509250505b50919050565b6000816001548110610b475760405162461bcd60e51b81526004016104df90613781565b600083815260026020526040812090805b6005830154811015610bc75781836005018281548110610b7a57610b7a613735565b9060005260206000209060040201600001541115610bbf57826005018181548110610ba757610ba7613735565b90600052602060002090600402016000015491508094505b600101610b58565b50505050919050565b6060816001548110610bf45760405162461bcd60e51b81526004016104df90613781565b600083815260026020526040812060058101549091906001600160401b03811115610c2157610c21612db8565b604051908082528060200260200182016040528015610c7f57816020015b610c6c60405180608001604052806000815260200160001515815260200160608152602001606081525090565b815260200190600190039081610c3f5790505b50905060005b6005830154811015610b1857826005018181548110610ca657610ca6613735565b9060005260206000209060040201604051806080016040529081600082015481526020016001820160009054906101000a900460ff16151515158152602001600282018054610cf4906135f5565b80601f0160208091040260200160405190810160405280929190818152602001828054610d20906135f5565b8015610d6d5780601f10610d4257610100808354040283529160200191610d6d565b820191906000526020600020905b815481529060010190602001808311610d5057829003601f168201915b50505050508152602001600382018054610d86906135f5565b80601f0160208091040260200160405190810160405280929190818152602001828054610db2906135f5565b8015610dff5780601f10610dd457610100808354040283529160200191610dff565b820191906000526020600020905b815481529060010190602001808311610de257829003601f168201915b505050505081525050828281518110610e1a57610e1a613735565b6020908102919091010152600101610c85565b6000546001600160a01b03163314610e575760405162461bcd60e51b81526004016104df90613584565b816001548110610e795760405162461bcd60e51b81526004016104df90613781565b60008381526003602081815260408084208685529091529091209081015460ff1615610ee75760405162461bcd60e51b815260206004820152601a60248201527f50726f706f73616c20616c72656164792070726f63657373656400000000000060448201526064016104df565b60038101805460ff1916600117905560405184907faa908072acca441e9819cc9cabe3b92771e640ba8c6833c952520c9bc9b68c8190610f2a9086815260200190565b60405180910390a250505050565b600260205260009081526040902080548190610f53906135f5565b80601f0160208091040260200160405190810160405280929190818152602001828054610f7f906135f5565b8015610fcc5780601f10610fa157610100808354040283529160200191610fcc565b820191906000526020600020905b815481529060010190602001808311610faf57829003601f168201915b505050505090806001018054610fe1906135f5565b80601f016020809104026020016040519081016040528092919081815260200182805461100d906135f5565b801561105a5780601f1061102f5761010080835404028352916020019161105a565b820191906000526020600020905b81548152906001019060200180831161103d57829003601f168201915b50505050600283015460038401546004909401549293909290915060ff8082169161010090041686565b6000546001600160a01b031633146110ae5760405162461bcd60e51b81526004016104df90613584565b8060015481106110d05760405162461bcd60e51b81526004016104df90613781565b60008281526002602052604090206004015460ff16156111325760405162461bcd60e51b815260206004820152601860248201527f456c656374696f6e20616c7265616479206163746976652e000000000000000060448201526064016104df565b600082815260026020819052604090912001544210156111a05760405162461bcd60e51b8152602060048201526024808201527f456c656374696f6e2073746172742074696d6520686173206e6f7420726561636044820152633432b21760e11b60648201526084016104df565b60008281526002602052604090206003015442106112005760405162461bcd60e51b815260206004820152601d60248201527f456c656374696f6e20656e642074696d6520686173207061737365642e00000060448201526064016104df565b506000908152600260205260409020600401805460ff19166001179055565b8260015481106112415760405162461bcd60e51b81526004016104df90613781565b6000848152600260205260409020600481015460ff16156112ba5760405162461bcd60e51b815260206004820152602d60248201527f43616e6e6f74207375626d69742070726f706f73616c7320746f20616e20616360448201526c3a34bb329032b632b1ba34b7b760991b60648201526084016104df565b6004810154610100900460ff161561132c5760405162461bcd60e51b815260206004820152602f60248201527f43616e6e6f74207375626d69742070726f706f73616c7320746f20612066696e60448201526e30b634bd32b21032b632b1ba34b7b760891b60648201526084016104df565b806002015442106113995760405162461bcd60e51b815260206004820152603160248201527f43616e6e6f74207375626d69742070726f706f73616c7320616674657220656c604482015270656374696f6e2073746172742074696d6560781b60648201526084016104df565b60008451116113f45760405162461bcd60e51b815260206004820152602160248201527f50726f706f73616c2064617461204349442063616e6e6f7420626520656d70746044820152607960f81b60648201526084016104df565b60008581526004602052604081208054908261140f836135dc565b9091555060408051608081018252878152602080820188905242828401526000606083018190528a8152600382528381208582529091529190912081519293509091819061145d9082613677565b50602082015160018201906114729082613677565b5060408281015160028301556060909201516003909101805460ff19169115159190911790555181815286907f57a43e96e43abb5d2a4d2a1b2722327902c2d041cfb4d5523f0511afff5201479060200160405180910390a2505050505050565b6000546001600160a01b031633146114fd5760405162461bcd60e51b81526004016104df90613584565b80600154811061151f5760405162461bcd60e51b81526004016104df90613781565b6000828152600260205260409020600481015460ff16156115825760405162461bcd60e51b815260206004820181905260248201527f43616e6e6f742064656c65746520616e2061637469766520656c656374696f6e60448201526064016104df565b6004810154610100900460ff16156115e75760405162461bcd60e51b815260206004820152602260248201527f43616e6e6f742064656c65746520612066696e616c697a656420656c6563746960448201526137b760f11b60648201526084016104df565b60008160000180546115f8906135f5565b80601f0160208091040260200160405190810160405280929190818152602001828054611624906135f5565b80156116715780601f1061164657610100808354040283529160200191611671565b820191906000526020600020905b81548152906001019060200180831161165457829003601f168201915b5050506000878152600260205260408120939450915061169390508282612cee565b6116a1600183016000612cee565b6000600283018190556003830181905560048301805461ffff191690556116cc906005840190612d28565b50507f063531ae3a0f1057c87a7e78db08a998018531f14d1d9ecf6c40c00d19829bf484826040516116ff9291906137b8565b60405180910390a150505050565b84600154811061172f5760405162461bcd60e51b81526004016104df90613781565b6000868152600260205260409020600481015460ff166117855760405162461bcd60e51b8152602060048201526011602482015270456c656374696f6e20696e61637469766560781b60448201526064016104df565b80600201544210156117d95760405162461bcd60e51b815260206004820152601960248201527f456c656374696f6e20686173206e6f7420737461727465642e0000000000000060448201526064016104df565b80600301544211156118235760405162461bcd60e51b815260206004820152601360248201527222b632b1ba34b7b7103430b99032b73232b21760691b60448201526064016104df565b600581015486106118765760405162461bcd60e51b815260206004820152601760248201527f496e76616c69642070726f706f73616c20696e6465782e00000000000000000060448201526064016104df565b60008660405160200161188b91815260200190565b60408051601f19818403018152828252805160209182012060c0840183526014845290830189905282820188905260608301819052608083018b905260a08301879052600554915163d0d898dd60e01b81529093508a92916001600160a01b03169063d0d898dd906119049060009085906004016137d9565b600060405180830381600087803b15801561191e57600080fd5b505af1158015611932573d6000803e3d6000fd5b505050506001846005018a8154811061194d5761194d613735565b9060005260206000209060040201600001600082825461196d9190613849565b9091555050604080518a8152602081018590529081018890528a907fdd1a267f30a0a2c633e51e6caaec32f80ca1210e0465fb65e4df939b60b2ad729060600160405180910390a250505050505050505050565b60606000805b600154811015611a0857600081815260026020526040812080546119ea906135f5565b90501115611a0057816119fc816135dc565b9250505b6001016119c7565b506000816001600160401b03811115611a2357611a23612db8565b604051908082528060200260200182016040528015611a9857816020015b611a856040518060e0016040528060008152602001606081526020016060815260200160008152602001600081526020016000151581526020016000151581525090565b815260200190600190039081611a415790505b5090506000805b600154811015611c6d57600081815260026020526040812080549091908290611ac7906135f5565b90501115611c64576040518060e00160405280838152602001826000018054611aef906135f5565b80601f0160208091040260200160405190810160405280929190818152602001828054611b1b906135f5565b8015611b685780601f10611b3d57610100808354040283529160200191611b68565b820191906000526020600020905b815481529060010190602001808311611b4b57829003601f168201915b50505050508152602001826001018054611b81906135f5565b80601f0160208091040260200160405190810160405280929190818152602001828054611bad906135f5565b8015611bfa5780601f10611bcf57610100808354040283529160200191611bfa565b820191906000526020600020905b815481529060010190602001808311611bdd57829003601f168201915b50505091835250506002830154602082015260038301546040820152600483015460ff808216151560608401526101009091041615156080909101528451859085908110611c4a57611c4a613735565b60200260200101819052508280611c60906135dc565b9350505b50600101611a9f565b50909392505050565b6060816001548110611c9a5760405162461bcd60e51b81526004016104df90613781565b6000838152600260205260409020600501611cb484610b23565b81548110611cc457611cc4613735565b90600052602060002090600402016002018054611ce0906135f5565b80601f0160208091040260200160405190810160405280929190818152602001828054611d0c906135f5565b8015611d595780601f10611d2e57610100808354040283529160200191611d59565b820191906000526020600020905b815481529060010190602001808311611d3c57829003601f168201915b5050505050915050919050565b6060816001548110611d8a5760405162461bcd60e51b81526004016104df90613781565b600083815260026020526040812060058101549091906001600160401b03811115611db757611db7612db8565b604051908082528060200260200182016040528015611de0578160200160208202803683370190505b50905060005b6005830154811015610b1857826005018181548110611e0757611e07613735565b906000526020600020906004020160000154828281518110611e2b57611e2b613735565b6020908102919091010152600101611de6565b6000818152600260205260408120600481015460ff16158015611e6b57506004810154610100900460ff16155b8015611e7b575080600201544210155b8015611e8a5750806003015442105b9392505050565b6000546001600160a01b03163314611ebb5760405162461bcd60e51b81526004016104df90613584565b600580546001600160a01b0319166001600160a01b0392909216919091179055565b6000546001600160a01b03163314611f075760405162461bcd60e51b81526004016104df90613584565b806001548110611f295760405162461bcd60e51b81526004016104df90613781565b60008281526002602052604090206004015460ff16611f8a5760405162461bcd60e51b815260206004820152601760248201527f456c656374696f6e206973206e6f74206163746976652e00000000000000000060448201526064016104df565b6000828152600260205260409020600401805461ffff1916610100179055611fb182612c0f565b5050565b611ff96040518060e0016040528060008152602001606081526020016060815260200160008152602001600081526020016000151581526020016000151581525090565b600154821061201a5760405162461bcd60e51b81526004016104df90613781565b60006002600084815260200190815260200160002090506040518060e00160405280848152602001826000018054612051906135f5565b80601f016020809104026020016040519081016040528092919081815260200182805461207d906135f5565b80156120ca5780601f1061209f576101008083540402835291602001916120ca565b820191906000526020600020905b8154815290600101906020018083116120ad57829003601f168201915b505050505081526020018260010180546120e3906135f5565b80601f016020809104026020016040519081016040528092919081815260200182805461210f906135f5565b801561215c5780601f106121315761010080835404028352916020019161215c565b820191906000526020600020905b81548152906001019060200180831161213f57829003601f168201915b5050509183525050600283015460208201526003830154604082015260049092015460ff8082161515606085015261010090910416151560809092019190915292915050565b60608160015481106121c65760405162461bcd60e51b81526004016104df90613781565b60008381526004602052604081205490805b82811015612219576000868152600360208181526040808420858552909152909120015460ff16612211578161220d816135dc565b9250505b6001016121d8565b506000816001600160401b0381111561223457612234612db8565b60405190808252806020026020018201604052801561229957816020015b6122866040518060a00160405280600081526020016060815260200160608152602001600081526020016000151581525090565b8152602001906001900390816122525790505b5090506000805b84811015612499576000888152600360208181526040808420858552909152909120015460ff16612491576040805160a08101825282815260008a8152600360209081528382208583528152929020805491928301916122ff906135f5565b80601f016020809104026020016040519081016040528092919081815260200182805461232b906135f5565b80156123785780601f1061234d57610100808354040283529160200191612378565b820191906000526020600020905b81548152906001019060200180831161235b57829003601f168201915b505050918352505060008a8152600360209081526040808320868452825290912060010180549190920191906123ad906135f5565b80601f01602080910402602001604051908101604052809291908181526020018280546123d9906135f5565b80156124265780601f106123fb57610100808354040283529160200191612426565b820191906000526020600020905b81548152906001019060200180831161240957829003601f168201915b505050918352505060008a81526003602081815260408084208785528083528185206002810154848801529488905290915291015460ff161515910152835184908490811061247757612477613735565b6020026020010181905250818061248d906135dc565b9250505b6001016122a0565b50909695505050505050565b6000818152600260205260408120600481015460ff1680156124cb575080600301544210155b8015611e8a575060040154610100900460ff161592915050565b6000546001600160a01b0316331461250f5760405162461bcd60e51b81526004016104df90613584565b8160015481106125315760405162461bcd60e51b81526004016104df90613781565b6000838152600360208181526040808420868552825280842087855260029092529092209082015460ff16156125a95760405162461bcd60e51b815260206004820152601a60248201527f50726f706f73616c20616c72656164792070726f63657373656400000000000060448201526064016104df565b600481015460ff16156126155760405162461bcd60e51b815260206004820152602e60248201527f43616e6e6f74206163636570742070726f706f73616c7320666f7220616e206160448201526d31ba34bb329032b632b1ba34b7b760911b60648201526084016104df565b6004810154610100900460ff16156126885760405162461bcd60e51b815260206004820152603060248201527f43616e6e6f74206163636570742070726f706f73616c7320666f72206120666960448201526f3730b634bd32b21032b632b1ba34b7b760811b60648201526084016104df565b60038201805460ff1916600117905560408051608081018252600080825260208201528354600584019282019085906126c0906135f5565b80601f01602080910402602001604051908101604052809291908181526020018280546126ec906135f5565b80156127395780601f1061270e57610100808354040283529160200191612739565b820191906000526020600020905b81548152906001019060200180831161271c57829003601f168201915b50505050508152602001846001018054612752906135f5565b80601f016020809104026020016040519081016040528092919081815260200182805461277e906135f5565b80156127cb5780601f106127a0576101008083540402835291602001916127cb565b820191906000526020600020905b8154815290600101906020018083116127ae57829003601f168201915b5050509190925250508154600180820184556000938452602093849020835160049093020191825592820151928101805460ff191693151593909317909255604081015190919060028201906128219082613677565b50606082015160038201906128369082613677565b505050847ff956a500d6c2e87a488e6827b381acae13cbf34caafe6373127af401151c7f278560405161286b91815260200190565b60405180910390a25050505050565b6000546001600160a01b031633146128a45760405162461bcd60e51b81526004016104df90613584565b8760015481106128c65760405162461bcd60e51b81526004016104df90613781565b6000898152600260205260409020600481015460ff16156129295760405162461bcd60e51b815260206004820181905260248201527f43616e6e6f742075706461746520616e2061637469766520656c656374696f6e60448201526064016104df565b6004810154610100900460ff161561298e5760405162461bcd60e51b815260206004820152602260248201527f43616e6e6f742075706461746520612066696e616c697a656420656c6563746960448201526137b760f11b60648201526084016104df565b8284106129d95760405162461bcd60e51b815260206004820152601960248201527824b73b30b634b21032b632b1ba34b7b710323ab930ba34b7b760391b60448201526064016104df565b86865114612a245760405162461bcd60e51b8152602060048201526018602482015277088c2e8c240869288e640c6deeadce840dad2e6dac2e8c6d60431b60448201526064016104df565b86855114612a705760405162461bcd60e51b8152602060048201526019602482015278092dac2ceca40869288e640c6deeadce840dad2e6dac2e8c6d603b1b60448201526064016104df565b80612a7b8a82613677565b5060018101612a8a8982613677565b506002810184905560038101839055612aa7600582016000612d28565b60005b87811015612b7c5781600501604051806080016040528060008152602001600015158152602001898481518110612ae357612ae3613735565b60200260200101518152602001888481518110612b0257612b02613735565b602090810291909101810151909152825460018082018555600094855293829020835160049092020190815590820151928101805460ff19169315159390931790925560408101519091906002820190612b5c9082613677565b5060608201516003820190612b719082613677565b505050600101612aaa565b507fe17b7d13c79641f1437d6ead12dd2dd76a16667bb88f963398ed5dcd3e2bf28f8a8a86868b604051612bb495949392919061374b565b60405180910390a150505050505050505050565b610a2e838383604051602401612be093929190613862565b60408051601f198184030181529190526020810180516001600160e01b031663ca47c4eb60e01b179052612cc9565b6000612c1a82610b23565b60008381526002602052604081209192505b6005820154811015612c7a576000826005018281548110612c4f57612c4f613735565b600091825260209091206004909102016001908101805460ff19169215159290921790915501612c2c565b50600083815260026020526040902060050180546001919084908110612ca257612ca2613735565b60009182526020909120600490910201600101805460ff1916911515919091179055505050565b6105718160006a636f6e736f6c652e6c6f679050600080835160208501845afa505050565b508054612cfa906135f5565b6000825580601f10612d0a575050565b601f0160209004906000526020600020908101906105719190612d49565b50805460008255600402906000526020600020908101906105719190612d62565b5b80821115612d5e5760008155600101612d4a565b5090565b80821115612d5e57600080825560018201805460ff19169055612d886002830182612cee565b612d96600383016000612cee565b50600401612d62565b600060208284031215612db157600080fd5b5035919050565b634e487b7160e01b600052604160045260246000fd5b60405161010081016001600160401b0381118282101715612df157612df1612db8565b60405290565b604051601f8201601f191681016001600160401b0381118282101715612e1f57612e1f612db8565b604052919050565b600082601f830112612e3857600080fd5b81356001600160401b03811115612e5157612e51612db8565b612e64601f8201601f1916602001612df7565b818152846020838601011115612e7957600080fd5b816020850160208301376000918101602001919091529392505050565b600082601f830112612ea757600080fd5b81356001600160401b03811115612ec057612ec0612db8565b8060051b612ed060208201612df7565b91825260208185018101929081019086841115612eec57600080fd5b6020860192505b83831015612f325782356001600160401b03811115612f1157600080fd5b612f20886020838a0101612e27565b83525060209283019290910190612ef3565b9695505050505050565b600080600080600080600060e0888a031215612f5757600080fd5b87356001600160401b03811115612f6d57600080fd5b612f798a828b01612e27565b97505060208801356001600160401b03811115612f9557600080fd5b612fa18a828b01612e27565b9650506040880135945060608801356001600160401b03811115612fc457600080fd5b612fd08a828b01612e96565b94505060808801356001600160401b03811115612fec57600080fd5b612ff88a828b01612e96565b979a969950949793969560a0850135955060c0909401359392505050565b6000806040838503121561302957600080fd5b50508035926020909101359150565b6000815180845260005b8181101561305e57602081850181015186830182015201613042565b506000602082860101526020601f19601f83011685010191505092915050565b6080815260006130916080830187613038565b82810360208401526130a38187613038565b6040840195909552505090151560609091015292915050565b6000602082016020835280845180835260408501915060408160051b86010192506020860160005b8281101561315257603f198786030184528151805186526020810151151560208701526040810151608060408801526131206080880182613038565b905060608201519150868103606088015261313b8183613038565b9650505060209384019391909101906001016130e4565b50929695505050505050565b60c08152600061317160c0830189613038565b82810360208401526131838189613038565b6040840197909752505060608101939093529015156080830152151560a09091015292915050565b6000806000606084860312156131c057600080fd5b8335925060208401356001600160401b038111156131dd57600080fd5b6131e986828701612e27565b92505060408401356001600160401b0381111561320557600080fd5b61321186828701612e27565b9150509250925092565b6000806000806000610180868803121561323457600080fd5b85359450602086013593506040860135925060608601359150609f8601871361325c57600080fd5b613264612dce565b8061018088018981111561327757600080fd5b608089015b8181101561329457803584526020938401930161327c565b505080925050509295509295909350565b805182526000602082015160e060208501526132c460e0850182613038565b9050604083015184820360408601526132dd8282613038565b915050606083015160608501526080830151608085015260a0830151151560a085015260c0830151151560c08501528091505092915050565b6000602082016020835280845180835260408501915060408160051b86010192506020860160005b8281101561315257603f1987860301845261335a8583516132a5565b9450602093840193919091019060010161333e565b602081526000611e8a6020830184613038565b602080825282518282018190526000918401906040840190835b818110156133ba57835183526020938401939092019160010161339c565b509095945050505050565b6000602082840312156133d757600080fd5b81356001600160a01b0381168114611e8a57600080fd5b602081526000611e8a60208301846132a5565b6000602082016020835280845180835260408501915060408160051b86010192506020860160005b8281101561315257603f19878603018452815180518652602081015160a0602088015261345960a0880182613038565b9050604082015187820360408901526134728282613038565b606084810151908a01526080938401511515939098019290925250506020938401939190910190600101613429565b600080600080600080600080610100898b0312156134be57600080fd5b8835975060208901356001600160401b038111156134db57600080fd5b6134e78b828c01612e27565b97505060408901356001600160401b0381111561350357600080fd5b61350f8b828c01612e27565b9650506060890135945060808901356001600160401b0381111561353257600080fd5b61353e8b828c01612e96565b94505060a08901356001600160401b0381111561355a57600080fd5b6135668b828c01612e96565b989b979a5095989497939693955050505060c08201359160e0013590565b60208082526022908201527f4f6e6c79206f776e65722063616e2063616c6c20746869732066756e6374696f604082015261371760f11b606082015260800190565b634e487b7160e01b600052601160045260246000fd5b6000600182016135ee576135ee6135c6565b5060010190565b600181811c9082168061360957607f821691505b602082108103610b1d57634e487b7160e01b600052602260045260246000fd5b601f821115610a2e57806000526020600020601f840160051c810160208510156136505750805b601f840160051c820191505b81811015613670576000815560010161365c565b5050505050565b81516001600160401b0381111561369057613690612db8565b6136a48161369e84546135f5565b84613629565b6020601f8211600181146136d857600083156136c05750848201515b600019600385901b1c1916600184901b178455613670565b600084815260208120601f198516915b8281101561370857878501518255602094850194600190920191016136e8565b50848210156137265786840151600019600387901b60f8161c191681555b50505050600190811b01905550565b634e487b7160e01b600052603260045260246000fd5b85815260a06020820152600061376460a0830187613038565b604083019590955250606081019290925260809091015292915050565b60208082526018908201527f456c656374696f6e20646f6573206e6f742065786973742e0000000000000000604082015260600190565b8281526040602082015260006137d16040830184613038565b949350505050565b60006101c08201905083825282516020830152602083015160408301526040830151606083015260608301516080830152608083015160a083015260a083015160c0830160005b600881101561383f578251825260209283019290910190600101613820565b5050509392505050565b8082018082111561385c5761385c6135c6565b92915050565b6060815260006138756060830186613038565b6020830194909452506040015291905056fe6964656e74697479436f6d6d69746d656e7420257320616464656420746f2047524f55505f4944202573a26469706673582212206676e4105de463019544dca0cae68816b819364afeebcc978c23920db980dd1764736f6c634300081c0033",
  "linkReferences": {},
  "deployedLinkReferences": {}
}