{
  "_format": "hh-sol-artifact-1",
  "contractName": "ProjectPollLedger",
  "sourceName": "contracts/ProjectPollLedger.sol",
  "abi": [
    {
      "inputs": [
        {
          "internalType": "address",
          "name": "semaphoreAddress",
          "type": "address"
        }
      ],
      "stateMutability": "nonpayable",
      "type": "constructor"
    },
    {
      "anonymous": false,
      "inputs": [
        {
          "indexed": false,
          "internalType": "uint256",
          "name": "electionId",
          "type": "uint256"
        },
        {
          "indexed": false,
          "internalType": "string",
          "name": "name",
          "type": "string"
        },
        {
          "indexed": false,
          "internalType": "uint256",
          "name": "startTime",
          "type": "uint256"
        },
        {
          "indexed": false,
          "internalType": "uint256",
          "name": "endTime",
          "type": "uint256"
        },
        {
          "indexed": false,
          "internalType": "uint256",
          "name": "proposalCount",
          "type": "uint256"
        }
      ],
      "name": "ElectionCreated",
      "type": "event"
    },
    {
      "anonymous": false,
      "inputs": [
        {
          "indexed": false,
          "internalType": "uint256",
          "name": "electionId",
          "type": "uint256"
        },
        {
          "indexed": false,
          "internalType": "string",
          "name": "name",
          "type": "string"
        }
      ],
      "name": "ElectionDeleted",
      "type": "event"
    },
    {
      "anonymous": false,
      "inputs": [
        {
          "indexed": true,
          "internalType": "uint256",
          "name": "electionId",
          "type": "uint256"
        },
        {
          "indexed": false,
          "internalType": "uint256",
          "name": "proposalId",
          "type": "uint256"
        }
      ],
      "name": "ProposalAccepted",
      "type": "event"
    },
    {
      "anonymous": false,
      "inputs": [
        {
          "indexed": true,
          "internalType": "uint256",
          "name": "electionId",
          "type": "uint256"
        },
        {
          "indexed": false,
          "internalType": "uint256",
          "name": "proposalId",
          "type": "uint256"
        }
      ],
      "name": "ProposalDeclined",
      "type": "event"
    },
    {
      "anonymous": false,
      "inputs": [
        {
          "indexed": true,
          "internalType": "uint256",
          "name": "electionId",
          "type": "uint256"
        },
        {
          "indexed": false,
          "internalType": "uint256",
          "name": "proposalId",
          "type": "uint256"
        }
      ],
      "name": "ProposalSubmitted",
      "type": "event"
    },
    {
      "anonymous": false,
      "inputs": [
        {
          "indexed": true,
          "internalType": "uint256",
          "name": "electionId",
          "type": "uint256"
        },
        {
          "indexed": false,
          "internalType": "uint256",
          "name": "proposalIndex",
          "type": "uint256"
        },
        {
          "indexed": false,
          "internalType": "bytes32",
          "name": "signal",
          "type": "bytes32"
        },
        {
          "indexed": false,
          "internalType": "uint256",
          "name": "nullifierHash",
          "type": "uint256"
        }
      ],
      "name": "VoteCasted",
      "type": "event"
    },
    {
      "inputs": [],
      "name": "GROUP_ID",
      "outputs": [
        {
          "internalType": "uint256",
          "name": "",
          "type": "uint256"
        }
      ],
      "stateMutability": "view",
      "type": "function"
    },
    {
      "inputs": [],
      "name": "MERKLE_TREE_DEPTH",
      "outputs": [
        {
          "internalType": "uint256",
          "name": "",
          "type": "uint256"
        }
      ],
      "stateMutability": "view",
      "type": "function"
    },
    {
      "inputs": [
        {
          "internalType": "uint256",
          "name": "electionId",
          "type": "uint256"
        },
        {
          "internalType": "uint256",
          "name": "proposalId",
          "type": "uint256"
        }
      ],
      "name": "acceptProposal",
      "outputs": [],
      "stateMutability": "nonpayable",
      "type": "function"
    },
    {
      "inputs": [
        {
          "internalType": "uint256",
          "name": "identityCommitment",
          "type": "uint256"
        }
      ],
      "name": "addMember",
      "outputs": [],
      "stateMutability": "nonpayable",
      "type": "function"
    },
    {
      "inputs": [
        {
          "internalType": "uint256",
          "name": "electionId",
          "type": "uint256"
        }
      ],
      "name": "checkVotes",
      "outputs": [
        {
          "internalType": "uint256[]",
          "name": "",
          "type": "uint256[]"
        }
      ],
      "stateMutability": "view",
      "type": "function"
    },
    {
      "inputs": [
        {
          "internalType": "string",
          "name": "name",
          "type": "string"
        },
        {
          "internalType": "string",
          "name": "cityArea",
          "type": "string"
        },
        {
          "internalType": "uint256",
          "name": "proposalCount",
          "type": "uint256"
        },
        {
          "internalType": "string[]",
          "name": "proposalDataCIDs",
          "type": "string[]"
        },
        {
          "internalType": "string[]",
          "name": "proposalImageCIDs",
          "type": "string[]"
        },
        {
          "internalType": "uint256",
          "name": "startTime",
          "type": "uint256"
        },
        {
          "internalType": "uint256",
          "name": "endTime",
          "type": "uint256"
        }
      ],
      "name": "createElection",
      "outputs": [],
      "stateMutability": "nonpayable",
      "type": "function"
    },
    {
      "inputs": [
        {
          "internalType": "uint256",
          "name": "electionId",
          "type": "uint256"
        },
        {
          "internalType": "uint256",
          "name": "proposalId",
          "type": "uint256"
        }
      ],
      "name": "declineProposal",
      "outputs": [],
      "stateMutability": "nonpayable",
      "type": "function"
    },
    {
      "inputs": [
        {
          "internalType": "uint256",
          "name": "electionId",
          "type": "uint256"
        }
      ],
      "name": "deleteElection",
      "outputs": [],
      "stateMutability": "nonpayable",
      "type": "function"
    },
    {
      "inputs": [],
      "name": "electionCount",
      "outputs": [
        {
          "internalType": "uint256",
          "name": "",
          "type": "uint256"
        }
      ],
      "stateMutability": "view",
      "type": "function"
    },
    {
      "inputs": [
        {
          "internalType": "uint256",
          "name": "",
          "type": "uint256"
        }
      ],
      "name": "elections",
      "outputs": [
        {
          "internalType": "string",
          "name": "name",
          "type": "string"
        },
        {
          "internalType": "string",
          "name": "cityArea",
          "type": "string"
        },
        {
          "internalType": "bool",
          "name": "active",
          "type": "bool"
        },
        {
          "internalType": "bool",
          "name": "finalized",
          "type": "bool"
        },
        {
          "internalType": "uint256",
          "name": "startTime",
          "type": "uint256"
        },
        {
          "internalType": "uint256",
          "name": "endTime",
          "type": "uint256"
        }
      ],
      "stateMutability": "view",
      "type": "function"
    },
    {
      "inputs": [
        {
          "internalType": "uint256",
          "name": "electionId",
          "type": "uint256"
        }
      ],
      "name": "endElection",
      "outputs": [],
      "stateMutability": "nonpayable",
      "type": "function"
    },
    {
      "inputs": [
        {
          "internalType": "uint256",
          "name": "electionId",
          "type": "uint256"
        }
      ],
      "name": "finalizeElection",
      "outputs": [],
      "stateMutability": "nonpayable",
      "type": "function"
    },
    {
      "inputs": [],
      "name": "getAllElections",
      "outputs": [
        {
          "components": [
            {
              "internalType": "uint256",
              "name": "electionId",
              "type": "uint256"
            },
            {
              "internalType": "string",
              "name": "name",
              "type": "string"
            },
            {
              "internalType": "string",
              "name": "cityArea",
              "type": "string"
            },
            {
              "internalType": "uint256",
              "name": "startTime",
              "type": "uint256"
            },
            {
              "internalType": "uint256",
              "name": "endTime",
              "type": "uint256"
            },
            {
              "internalType": "bool",
              "name": "active",
              "type": "bool"
            },
            {
              "internalType": "bool",
              "name": "finalized",
              "type": "bool"
            }
          ],
          "internalType": "struct ProjectPollLedger.ElectionView[]",
          "name": "",
          "type": "tuple[]"
        }
      ],
      "stateMutability": "view",
      "type": "function"
    },
    {
      "inputs": [],
      "name": "getCurrentBlockTimestamp",
      "outputs": [
        {
          "internalType": "uint256",
          "name": "",
          "type": "uint256"
        }
      ],
      "stateMutability": "view",
      "type": "function"
    },
    {
      "inputs": [
        {
          "internalType": "uint256",
          "name": "electionId",
          "type": "uint256"
        }
      ],
      "name": "getElection",
      "outputs": [
        {
          "components": [
            {
              "internalType": "uint256",
              "name": "electionId",
              "type": "uint256"
            },
            {
              "internalType": "string",
              "name": "name",
              "type": "string"
            },
            {
              "internalType": "string",
              "name": "cityArea",
              "type": "string"
            },
            {
              "internalType": "uint256",
              "name": "startTime",
              "type": "uint256"
            },
            {
              "internalType": "uint256",
              "name": "endTime",
              "type": "uint256"
            },
            {
              "internalType": "bool",
              "name": "active",
              "type": "bool"
            },
            {
              "internalType": "bool",
              "name": "finalized",
              "type": "bool"
            }
          ],
          "internalType": "struct ProjectPollLedger.ElectionView",
          "name": "",
          "type": "tuple"
        }
      ],
      "stateMutability": "view",
      "type": "function"
    },
    {
      "inputs": [
        {
          "internalType": "uint256",
          "name": "electionId",
          "type": "uint256"
        }
      ],
      "name": "getPendingProposalCount",
      "outputs": [
        {
          "internalType": "uint256",
          "name": "",
          "type": "uint256"
        }
      ],
      "stateMutability": "view",
      "type": "function"
    },
    {
      "inputs": [
        {
          "internalType": "uint256",
          "name": "electionId",
          "type": "uint256"
        }
      ],
      "name": "getPendingProposals",
      "outputs": [
        {
          "components": [
            {
              "internalType": "uint256",
              "name": "proposalId",
              "type": "uint256"
            },
            {
              "internalType": "string",
              "name": "dataCID",
              "type": "string"
            },
            {
              "internalType": "string",
              "name": "imageCID",
              "type": "string"
            },
            {
              "internalType": "uint256",
              "name": "timestamp",
              "type": "uint256"
            },
            {
              "internalType": "bool",
              "name": "processed",
              "type": "bool"
            }
          ],
          "internalType": "struct ProjectPollLedger.PendingProposalView[]",
          "name": "",
          "type": "tuple[]"
        }
      ],
      "stateMutability": "view",
      "type": "function"
    },
    {
      "inputs": [
        {
          "internalType": "uint256",
          "name": "electionId",
          "type": "uint256"
        }
      ],
      "name": "getProposals",
      "outputs": [
        {
          "components": [
            {
              "internalType": "uint256",
              "name": "voteCount",
              "type": "uint256"
            },
            {
              "internalType": "bool",
              "name": "winningProposal",
              "type": "bool"
            },
            {
              "internalType": "string",
              "name": "dataCID",
              "type": "string"
            },
            {
              "internalType": "string",
              "name": "imageCID",
              "type": "string"
            }
          ],
          "internalType": "struct ProjectPollLedger.Proposal[]",
          "name": "",
          "type": "tuple[]"
        }
      ],
      "stateMutability": "view",
      "type": "function"
    },
    {
      "inputs": [
        {
          "internalType": "uint256",
          "name": "electionId",
          "type": "uint256"
        }
      ],
      "name": "getWinnerDataCID",
      "outputs": [
        {
          "internalType": "string",
          "name": "winnerDataCID",
          "type": "string"
        }
      ],
      "stateMutability": "view",
      "type": "function"
    },
    {
      "inputs": [
        {
          "internalType": "uint256",
          "name": "electionId",
          "type": "uint256"
        }
      ],
      "name": "getWinningProposal",
      "outputs": [
        {
          "internalType": "uint256",
          "name": "winningProposal_",
          "type": "uint256"
        }
      ],
      "stateMutability": "view",
      "type": "function"
    },
    {
      "inputs": [
        {
          "internalType": "uint256",
          "name": "electionId",
          "type": "uint256"
        }
      ],
      "name": "hasElectionEnded",
      "outputs": [
        {
          "internalType": "bool",
          "name": "",
          "type": "bool"
        }
      ],
      "stateMutability": "view",
      "type": "function"
    },
    {
      "inputs": [],
      "name": "owner",
      "outputs": [
        {
          "internalType": "address",
          "name": "",
          "type": "address"
        }
      ],
      "stateMutability": "view",
      "type": "function"
    },
    {
      "inputs": [
        {
          "internalType": "uint256",
          "name": "",
          "type": "uint256"
        }
      ],
      "name": "pendingProposalCounts",
      "outputs": [
        {
          "internalType": "uint256",
          "name": "",
          "type": "uint256"
        }
      ],
      "stateMutability": "view",
      "type": "function"
    },
    {
      "inputs": [
        {
          "internalType": "uint256",
          "name": "",
          "type": "uint256"
        },
        {
          "internalType": "uint256",
          "name": "",
          "type": "uint256"
        }
      ],
      "name": "pendingProposals",
      "outputs": [
        {
          "internalType": "string",
          "name": "dataCID",
          "type": "string"
        },
        {
          "internalType": "string",
          "name": "imageCID",
          "type": "string"
        },
        {
          "internalType": "uint256",
          "name": "timestamp",
          "type": "uint256"
        },
        {
          "internalType": "bool",
          "name": "processed",
          "type": "bool"
        }
      ],
      "stateMutability": "view",
      "type": "function"
    },
    {
      "inputs": [],
      "name": "semaphore",
      "outputs": [
        {
          "internalType": "contract ISemaphore",
          "name": "",
          "type": "address"
        }
      ],
      "stateMutability": "view",
      "type": "function"
    },
    {
      "inputs": [
        {
          "internalType": "address",
          "name": "newSemaphoreAddress",
          "type": "address"
        }
      ],
      "name": "setSemaphoreAddress",
      "outputs": [],
      "stateMutability": "nonpayable",
      "type": "function"
    },
    {
      "inputs": [
        {
          "internalType": "uint256",
          "name": "electionId",
          "type": "uint256"
        }
      ],
      "name": "shouldElectionStart",
      "outputs": [
        {
          "internalType": "bool",
          "name": "",
          "type": "bool"
        }
      ],
      "stateMutability": "view",
      "type": "function"
    },
    {
      "inputs": [
        {
          "internalType": "uint256",
          "name": "electionId",
          "type": "uint256"
        }
      ],
      "name": "startElection",
      "outputs": [],
      "stateMutability": "nonpayable",
      "type": "function"
    },
    {
      "inputs": [
        {
          "internalType": "uint256",
          "name": "electionId",
          "type": "uint256"
        },
        {
          "internalType": "string",
          "name": "dataCID",
          "type": "string"
        },
        {
          "internalType": "string",
          "name": "imageCID",
          "type": "string"
        }
      ],
      "name": "submitProposal",
      "outputs": [],
      "stateMutability": "nonpayable",
      "type": "function"
    },
    {
      "inputs": [
        {
          "internalType": "uint256",
          "name": "electionId",
          "type": "uint256"
        },
        {
          "internalType": "string",
          "name": "name",
          "type": "string"
        },
        {
          "internalType": "string",
          "name": "cityArea",
          "type": "string"
        },
        {
          "internalType": "uint256",
          "name": "proposalCount",
          "type": "uint256"
        },
        {
          "internalType": "string[]",
          "name": "proposalDataCIDs",
          "type": "string[]"
        },
        {
          "internalType": "string[]",
          "name": "proposalIPFSCIDs",
          "type": "string[]"
        },
        {
          "internalType": "uint256",
          "name": "startTime",
          "type": "uint256"
        },
        {
          "internalType": "uint256",
          "name": "endTime",
          "type": "uint256"
        }
      ],
      "name": "updateElection",
      "outputs": [],
      "stateMutability": "nonpayable",
      "type": "function"
    },
    {
      "inputs": [
        {
          "internalType": "uint256",
          "name": "electionId",
          "type": "uint256"
        },
        {
          "internalType": "uint256",
          "name": "proposalIndex",
          "type": "uint256"
        },
        {
          "internalType": "uint256",
          "name": "merkleTreeRoot",
          "type": "uint256"
        },
        {
          "internalType": "uint256",
          "name": "nullifierHash",
          "type": "uint256"
        },
        {
          "internalType": "uint256[8]",
          "name": "zkProof",
          "type": "uint256[8]"
        }
      ],
      "name": "vote",
      "outputs": [],
      "stateMutability": "nonpayable",
      "type": "function"
    }
  ],
  "bytecode": "0x60806040526000600155348015601457600080fd5b50604051613a9b380380613a9b8339810160408190526031916063565b60008054336001600160a01b031991821617909155600580549091166001600160a01b03929092169190911790556091565b600060208284031215607457600080fd5b81516001600160a01b0381168114608a57600080fd5b9392505050565b6139fb806100a06000396000f3fe608060405234801561001057600080fd5b50600436106101e55760003560e01c8063740c47d41161010f578063997d2830116100a2578063ca53b20011610071578063ca53b2001461045c578063cadc68e91461047c578063e1e1d5ca1461048f578063e200c2d0146104a257600080fd5b8063997d28301461040d5780639b61c9c4146104165780639c98bcbb146104295780639d7107771461043c57600080fd5b80638c3e12af116100de5780638c3e12af146103975780638c4cde81146103b75780638da5cb5b146103d757806390af4e18146103ea57600080fd5b8063740c47d41461033157806376805335146103445780637b5d2534146103575780637fd5f2681461038257600080fd5b80632c72fdfc116101875780634dd9c0b5116101565780634dd9c0b5146102de5780635e6fef01146102e65780636d32dc4b1461030b5780637195df6c1461031e57600080fd5b80632c72fdfc146102835780633568cda0146102a35780633ad10d97146102ab5780634b6a0853146102be57600080fd5b8063152af8ff116101c3578063152af8ff146102275780631537052e1461024a57806320c788791461025d578063292ca1661461027057600080fd5b80630f28c97d146101ea5780631089f5ed146101ff57806311429a9814610214575b600080fd5b425b6040519081526020015b60405180910390f35b61021261020d366004612e93565b6104b5565b005b610212610222366004613030565b610574565b61023a61023536600461310a565b6107fc565b6040516101f69493929190613172565b610212610258366004612e93565b610943565b6101ec61026b366004612e93565b610aa3565b6101ec61027e366004612e93565b610b25565b610296610291366004612e93565b610bd2565b6040516101f691906131b0565b6101ec601481565b6102126102b936600461310a565b610e2f565b6101ec6102cc366004612e93565b60046020526000908152604090205481565b6101ec600081565b6102f96102f4366004612e93565b610f3a565b6040516101f696959493929190613252565b610212610319366004612e93565b611085565b61021261032c36600461329d565b611221565b61021261033f366004612e93565b6114d7565b61021261035236600461330d565b611713565b60055461036a906001600160a01b031681565b6040516001600160a01b0390911681526020016101f6565b61038a611aaf565b6040516101f69190613408565b6103aa6103a5366004612e93565b611d64565b6040516101f69190613461565b6103ca6103c5366004612e93565b611e54565b6040516101f69190613474565b60005461036a906001600160a01b031681565b6103fd6103f8366004612e93565b611f2c565b60405190151581526020016101f6565b6101ec60015481565b6102126104243660046134b7565b611f80565b610212610437366004612e93565b611fcc565b61044f61044a366004612e93565b6120a6565b6040516101f691906134e0565b61046f61046a366004612e93565b612293565b6040516101f691906134f3565b6103fd61048a366004612e93565b612596565b61021261049d36600461310a565b6125d7565b6102126104b0366004613593565b61296c565b6000546001600160a01b031633146104e85760405162461bcd60e51b81526004016104df90613676565b60405180910390fd5b600554604051631783efc360e01b815260006004820152602481018390526001600160a01b0390911690631783efc390604401600060405180830381600087803b15801561053557600080fd5b505af1158015610549573d6000803e3d6000fd5b505050506105716040518060600160405280602a815260200161399c602a9139826000612cbc565b50565b6000546001600160a01b0316331461059e5760405162461bcd60e51b81526004016104df90613676565b8082106105e95760405162461bcd60e51b815260206004820152601960248201527824b73b30b634b21032b632b1ba34b7b710323ab930ba34b7b760391b60448201526064016104df565b848451146106345760405162461bcd60e51b8152602060048201526018602482015277088c2e8c240869288e640c6deeadce840dad2e6dac2e8c6d60431b60448201526064016104df565b848351146106805760405162461bcd60e51b8152602060048201526019602482015278092dac2ceca40869288e640c6deeadce840dad2e6dac2e8c6d603b1b60448201526064016104df565b6001805460009182610691836136ce565b909155506000818152600260205260409020909150806106b18a82613769565b50600181016106c08982613769565b5060028101805461ffff19169055600381018490556004810183905560005b878110156107b1578160050160405180608001604052806000815260200160001515815260200189848151811061071857610718613827565b6020026020010151815260200188848151811061073757610737613827565b602090810291909101810151909152825460018082018555600094855293829020835160049092020190815590820151928101805460ff191693151593909317909255604081015190919060028201906107919082613769565b50606082015160038201906107a69082613769565b5050506001016106df565b507fe17b7d13c79641f1437d6ead12dd2dd76a16667bb88f963398ed5dcd3e2bf28f828a86868b6040516107e995949392919061383d565b60405180910390a1505050505050505050565b6003602090815260009283526040808420909152908252902080548190610822906136e7565b80601f016020809104026020016040519081016040528092919081815260200182805461084e906136e7565b801561089b5780601f106108705761010080835404028352916020019161089b565b820191906000526020600020905b81548152906001019060200180831161087e57829003601f168201915b5050505050908060010180546108b0906136e7565b80601f01602080910402602001604051908101604052809291908181526020018280546108dc906136e7565b80156109295780601f106108fe57610100808354040283529160200191610929565b820191906000526020600020905b81548152906001019060200180831161090c57829003601f168201915b50505050600283015460039093015491929160ff16905084565b6000546001600160a01b0316331461096d5760405162461bcd60e51b81526004016104df90613676565b80600154811061098f5760405162461bcd60e51b81526004016104df90613873565b600082815260026020819052604090912090810154610100900460ff16156109f95760405162461bcd60e51b815260206004820152601d60248201527f456c656374696f6e20697320616c72656164792066696e616c697a656400000060448201526064016104df565b600281015460ff168015610a11575080600401544210155b15610a355760028101805461ffff1916610100179055610a3083612d03565b505050565b8060040154421015610a895760405162461bcd60e51b815260206004820152601a60248201527f456c656374696f6e20686173206e6f7420656e6465642079657400000000000060448201526064016104df565b60028101805461ffff1916610100179055610a3083612d03565b6000816001548110610ac75760405162461bcd60e51b81526004016104df90613873565b60008381526004602052604081205490805b82811015610b1a576000868152600360208181526040808420858552909152909120015460ff16610b125781610b0e816136ce565b9250505b600101610ad9565b509250505b50919050565b6000816001548110610b495760405162461bcd60e51b81526004016104df90613873565b600083815260026020526040812090805b6005830154811015610bc95781836005018281548110610b7c57610b7c613827565b9060005260206000209060040201600001541115610bc157826005018181548110610ba957610ba9613827565b90600052602060002090600402016000015491508094505b600101610b5a565b50505050919050565b6060816001548110610bf65760405162461bcd60e51b81526004016104df90613873565b600083815260026020526040812060058101549091906001600160401b03811115610c2357610c23612eac565b604051908082528060200260200182016040528015610c8157816020015b610c6e60405180608001604052806000815260200160001515815260200160608152602001606081525090565b815260200190600190039081610c415790505b50905060005b6005830154811015610b1a57826005018181548110610ca857610ca8613827565b9060005260206000209060040201604051806080016040529081600082015481526020016001820160009054906101000a900460ff16151515158152602001600282018054610cf6906136e7565b80601f0160208091040260200160405190810160405280929190818152602001828054610d22906136e7565b8015610d6f5780601f10610d4457610100808354040283529160200191610d6f565b820191906000526020600020905b815481529060010190602001808311610d5257829003601f168201915b50505050508152602001600382018054610d88906136e7565b80601f0160208091040260200160405190810160405280929190818152602001828054610db4906136e7565b8015610e015780601f10610dd657610100808354040283529160200191610e01565b820191906000526020600020905b815481529060010190602001808311610de457829003601f168201915b505050505081525050828281518110610e1c57610e1c613827565b6020908102919091010152600101610c87565b6000546001600160a01b03163314610e595760405162461bcd60e51b81526004016104df90613676565b816001548110610e7b5760405162461bcd60e51b81526004016104df90613873565b60008381526003602081815260408084208685529091529091209081015460ff1615610ee95760405162461bcd60e51b815260206004820152601a60248201527f50726f706f73616c20616c72656164792070726f63657373656400000000000060448201526064016104df565b60038101805460ff1916600117905560405184907faa908072acca441e9819cc9cabe3b92771e640ba8c6833c952520c9bc9b68c8190610f2c9086815260200190565b60405180910390a250505050565b600260205260009081526040902080548190610f55906136e7565b80601f0160208091040260200160405190810160405280929190818152602001828054610f81906136e7565b8015610fce5780601f10610fa357610100808354040283529160200191610fce565b820191906000526020600020905b815481529060010190602001808311610fb157829003601f168201915b505050505090806001018054610fe3906136e7565b80601f016020809104026020016040519081016040528092919081815260200182805461100f906136e7565b801561105c5780601f106110315761010080835404028352916020019161105c565b820191906000526020600020905b81548152906001019060200180831161103f57829003601f168201915b50505060028401546003850154600490950154939460ff80831695610100909304169350915086565b6000546001600160a01b031633146110af5760405162461bcd60e51b81526004016104df90613676565b8060015481106110d15760405162461bcd60e51b81526004016104df90613873565b6000828152600260208190526040909120015460ff16156111345760405162461bcd60e51b815260206004820152601860248201527f456c656374696f6e20616c7265616479206163746976652e000000000000000060448201526064016104df565b6000828152600260205260409020600301544210156111a15760405162461bcd60e51b8152602060048201526024808201527f456c656374696f6e2073746172742074696d6520686173206e6f7420726561636044820152633432b21760e11b60648201526084016104df565b60008281526002602052604090206004015442106112015760405162461bcd60e51b815260206004820152601d60248201527f456c656374696f6e20656e642074696d6520686173207061737365642e00000060448201526064016104df565b50600090815260026020819052604090912001805460ff19166001179055565b8260015481106112435760405162461bcd60e51b81526004016104df90613873565b60008481526002602081905260409091209081015460ff16156112be5760405162461bcd60e51b815260206004820152602d60248201527f43616e6e6f74207375626d69742070726f706f73616c7320746f20616e20616360448201526c3a34bb329032b632b1ba34b7b760991b60648201526084016104df565b6002810154610100900460ff16156113305760405162461bcd60e51b815260206004820152602f60248201527f43616e6e6f74207375626d69742070726f706f73616c7320746f20612066696e60448201526e30b634bd32b21032b632b1ba34b7b760891b60648201526084016104df565b8060030154421061139d5760405162461bcd60e51b815260206004820152603160248201527f43616e6e6f74207375626d69742070726f706f73616c7320616674657220656c604482015270656374696f6e2073746172742074696d6560781b60648201526084016104df565b60008451116113f85760405162461bcd60e51b815260206004820152602160248201527f50726f706f73616c2064617461204349442063616e6e6f7420626520656d70746044820152607960f81b60648201526084016104df565b600085815260046020526040812080549082611413836136ce565b9091555060408051608081018252878152602080820188905242828401526000606083018190528a815260038252838120858252909152919091208151929350909181906114619082613769565b50602082015160018201906114769082613769565b5060408281015160028301556060909201516003909101805460ff19169115159190911790555181815286907f57a43e96e43abb5d2a4d2a1b2722327902c2d041cfb4d5523f0511afff5201479060200160405180910390a2505050505050565b6000546001600160a01b031633146115015760405162461bcd60e51b81526004016104df90613676565b8060015481106115235760405162461bcd60e51b81526004016104df90613873565b60008281526002602081905260409091209081015460ff16156115885760405162461bcd60e51b815260206004820181905260248201527f43616e6e6f742064656c65746520616e2061637469766520656c656374696f6e60448201526064016104df565b6002810154610100900460ff16156115ed5760405162461bcd60e51b815260206004820152602260248201527f43616e6e6f742064656c65746520612066696e616c697a656420656c6563746960448201526137b760f11b60648201526084016104df565b60008160000180546115fe906136e7565b80601f016020809104026020016040519081016040528092919081815260200182805461162a906136e7565b80156116775780601f1061164c57610100808354040283529160200191611677565b820191906000526020600020905b81548152906001019060200180831161165a57829003601f168201915b5050506000878152600260205260408120939450915061169990508282612de2565b6116a7600183016000612de2565b60028201805461ffff19169055600060038301819055600483018190556116d2906005840190612e1c565b50507f063531ae3a0f1057c87a7e78db08a998018531f14d1d9ecf6c40c00d19829bf484826040516117059291906138aa565b60405180910390a150505050565b8460015481106117355760405162461bcd60e51b81526004016104df90613873565b60008681526002602081905260409091209081015460ff1661178d5760405162461bcd60e51b8152602060048201526011602482015270456c656374696f6e20696e61637469766560781b60448201526064016104df565b80600301544210156117e15760405162461bcd60e51b815260206004820152601960248201527f456c656374696f6e20686173206e6f7420737461727465642e0000000000000060448201526064016104df565b806004015442111561182b5760405162461bcd60e51b815260206004820152601360248201527222b632b1ba34b7b7103430b99032b73232b21760691b60448201526064016104df565b6005810154861061187e5760405162461bcd60e51b815260206004820152601760248201527f496e76616c69642070726f706f73616c20696e6465782e00000000000000000060448201526064016104df565b600084815260068201602052604090205460ff16156118f55760405162461bcd60e51b815260206004820152602d60248201527f4e756c6c69666965722077617320616c7265616479207573656420666f72207460448201526c3434b99032b632b1ba34b7b71760991b60648201526084016104df565b60008660405160200161190a91815260200190565b60408051601f19818403018152828252805160209182012060c0840183526014845290830189905282820188905260608301819052608083018b905260a0830187905260055491516308ade83160e31b81529093508a92916000916001600160a01b039091169063456f41889061198790849086906004016138cb565b602060405180830381865afa1580156119a4573d6000803e3d6000fd5b505050506040513d601f19601f820116820180604052508101906119c8919061393b565b905080611a075760405162461bcd60e51b815260206004820152600d60248201526c24b73b30b634b210383937b7b360991b60448201526064016104df565b6001856005018b81548110611a1e57611a1e613827565b90600052602060002090600402016000016000828254611a3e919061395d565b90915550506000888152600686016020908152604091829020805460ff1916600117905581518c81529081018690529081018990528b907fdd1a267f30a0a2c633e51e6caaec32f80ca1210e0465fb65e4df939b60b2ad729060600160405180910390a25050505050505050505050565b60606000805b600154811015611af65760008181526002602052604081208054611ad8906136e7565b90501115611aee5781611aea816136ce565b9250505b600101611ab5565b506000816001600160401b03811115611b1157611b11612eac565b604051908082528060200260200182016040528015611b8657816020015b611b736040518060e0016040528060008152602001606081526020016060815260200160008152602001600081526020016000151581526020016000151581525090565b815260200190600190039081611b2f5790505b5090506000805b600154811015611d5b57600081815260026020526040812080549091908290611bb5906136e7565b90501115611d52576040518060e00160405280838152602001826000018054611bdd906136e7565b80601f0160208091040260200160405190810160405280929190818152602001828054611c09906136e7565b8015611c565780601f10611c2b57610100808354040283529160200191611c56565b820191906000526020600020905b815481529060010190602001808311611c3957829003601f168201915b50505050508152602001826001018054611c6f906136e7565b80601f0160208091040260200160405190810160405280929190818152602001828054611c9b906136e7565b8015611ce85780601f10611cbd57610100808354040283529160200191611ce8565b820191906000526020600020905b815481529060010190602001808311611ccb57829003601f168201915b50505091835250506003830154602082015260048301546040820152600283015460ff808216151560608401526101009091041615156080909101528451859085908110611d3857611d38613827565b60200260200101819052508280611d4e906136ce565b9350505b50600101611b8d565b50909392505050565b6060816001548110611d885760405162461bcd60e51b81526004016104df90613873565b6000838152600260205260409020600501611da284610b25565b81548110611db257611db2613827565b90600052602060002090600402016002018054611dce906136e7565b80601f0160208091040260200160405190810160405280929190818152602001828054611dfa906136e7565b8015611e475780601f10611e1c57610100808354040283529160200191611e47565b820191906000526020600020905b815481529060010190602001808311611e2a57829003601f168201915b5050505050915050919050565b6060816001548110611e785760405162461bcd60e51b81526004016104df90613873565b600083815260026020526040812060058101549091906001600160401b03811115611ea557611ea5612eac565b604051908082528060200260200182016040528015611ece578160200160208202803683370190505b50905060005b6005830154811015610b1a57826005018181548110611ef557611ef5613827565b906000526020600020906004020160000154828281518110611f1957611f19613827565b6020908102919091010152600101611ed4565b600081815260026020819052604082209081015460ff16158015611f5a57506002810154610100900460ff16155b8015611f6a575080600301544210155b8015611f795750806004015442105b9392505050565b6000546001600160a01b03163314611faa5760405162461bcd60e51b81526004016104df90613676565b600580546001600160a01b0319166001600160a01b0392909216919091179055565b6000546001600160a01b03163314611ff65760405162461bcd60e51b81526004016104df90613676565b8060015481106120185760405162461bcd60e51b81526004016104df90613873565b6000828152600260208190526040909120015460ff1661207a5760405162461bcd60e51b815260206004820152601760248201527f456c656374696f6e206973206e6f74206163746976652e00000000000000000060448201526064016104df565b600082815260026020819052604090912001805461ffff19166101001790556120a282612d03565b5050565b6120ea6040518060e0016040528060008152602001606081526020016060815260200160008152602001600081526020016000151581526020016000151581525090565b600154821061210b5760405162461bcd60e51b81526004016104df90613873565b60006002600084815260200190815260200160002090506040518060e00160405280848152602001826000018054612142906136e7565b80601f016020809104026020016040519081016040528092919081815260200182805461216e906136e7565b80156121bb5780601f10612190576101008083540402835291602001916121bb565b820191906000526020600020905b81548152906001019060200180831161219e57829003601f168201915b505050505081526020018260010180546121d4906136e7565b80601f0160208091040260200160405190810160405280929190818152602001828054612200906136e7565b801561224d5780601f106122225761010080835404028352916020019161224d565b820191906000526020600020905b81548152906001019060200180831161223057829003601f168201915b5050509183525050600383015460208201526004830154604082015260029092015460ff8082161515606085015261010090910416151560809092019190915292915050565b60608160015481106122b75760405162461bcd60e51b81526004016104df90613873565b60008381526004602052604081205490805b8281101561230a576000868152600360208181526040808420858552909152909120015460ff1661230257816122fe816136ce565b9250505b6001016122c9565b506000816001600160401b0381111561232557612325612eac565b60405190808252806020026020018201604052801561238a57816020015b6123776040518060a00160405280600081526020016060815260200160608152602001600081526020016000151581525090565b8152602001906001900390816123435790505b5090506000805b8481101561258a576000888152600360208181526040808420858552909152909120015460ff16612582576040805160a08101825282815260008a8152600360209081528382208583528152929020805491928301916123f0906136e7565b80601f016020809104026020016040519081016040528092919081815260200182805461241c906136e7565b80156124695780601f1061243e57610100808354040283529160200191612469565b820191906000526020600020905b81548152906001019060200180831161244c57829003601f168201915b505050918352505060008a81526003602090815260408083208684528252909120600101805491909201919061249e906136e7565b80601f01602080910402602001604051908101604052809291908181526020018280546124ca906136e7565b80156125175780601f106124ec57610100808354040283529160200191612517565b820191906000526020600020905b8154815290600101906020018083116124fa57829003601f168201915b505050918352505060008a81526003602081815260408084208785528083528185206002810154848801529488905290915291015460ff161515910152835184908490811061256857612568613827565b6020026020010181905250818061257e906136ce565b9250505b600101612391565b50909695505050505050565b600081815260026020819052604082209081015460ff1680156125bd575080600401544210155b8015611f79575060020154610100900460ff161592915050565b6000546001600160a01b031633146126015760405162461bcd60e51b81526004016104df90613676565b8160015481106126235760405162461bcd60e51b81526004016104df90613873565b6000838152600360208181526040808420868552825280842087855260029092529092209082015460ff161561269b5760405162461bcd60e51b815260206004820152601a60248201527f50726f706f73616c20616c72656164792070726f63657373656400000000000060448201526064016104df565b600281015460ff16156127075760405162461bcd60e51b815260206004820152602e60248201527f43616e6e6f74206163636570742070726f706f73616c7320666f7220616e206160448201526d31ba34bb329032b632b1ba34b7b760911b60648201526084016104df565b6002810154610100900460ff161561277a5760405162461bcd60e51b815260206004820152603060248201527f43616e6e6f74206163636570742070726f706f73616c7320666f72206120666960448201526f3730b634bd32b21032b632b1ba34b7b760811b60648201526084016104df565b60038201805460ff1916600117905560408051608081018252600080825260208201528354600584019282019085906127b2906136e7565b80601f01602080910402602001604051908101604052809291908181526020018280546127de906136e7565b801561282b5780601f106128005761010080835404028352916020019161282b565b820191906000526020600020905b81548152906001019060200180831161280e57829003601f168201915b50505050508152602001846001018054612844906136e7565b80601f0160208091040260200160405190810160405280929190818152602001828054612870906136e7565b80156128bd5780601f10612892576101008083540402835291602001916128bd565b820191906000526020600020905b8154815290600101906020018083116128a057829003601f168201915b5050509190925250508154600180820184556000938452602093849020835160049093020191825592820151928101805460ff191693151593909317909255604081015190919060028201906129139082613769565b50606082015160038201906129289082613769565b505050847ff956a500d6c2e87a488e6827b381acae13cbf34caafe6373127af401151c7f278560405161295d91815260200190565b60405180910390a25050505050565b6000546001600160a01b031633146129965760405162461bcd60e51b81526004016104df90613676565b8760015481106129b85760405162461bcd60e51b81526004016104df90613873565b60008981526002602081905260409091209081015460ff1615612a1d5760405162461bcd60e51b815260206004820181905260248201527f43616e6e6f742075706461746520616e2061637469766520656c656374696f6e60448201526064016104df565b6002810154610100900460ff1615612a825760405162461bcd60e51b815260206004820152602260248201527f43616e6e6f742075706461746520612066696e616c697a656420656c6563746960448201526137b760f11b60648201526084016104df565b828410612acd5760405162461bcd60e51b815260206004820152601960248201527824b73b30b634b21032b632b1ba34b7b710323ab930ba34b7b760391b60448201526064016104df565b86865114612b185760405162461bcd60e51b8152602060048201526018602482015277088c2e8c240869288e640c6deeadce840dad2e6dac2e8c6d60431b60448201526064016104df565b86855114612b645760405162461bcd60e51b8152602060048201526019602482015278092dac2ceca40869288e640c6deeadce840dad2e6dac2e8c6d603b1b60448201526064016104df565b80612b6f8a82613769565b5060018101612b7e8982613769565b506003810184905560048101839055612b9b600582016000612e1c565b60005b87811015612c705781600501604051806080016040528060008152602001600015158152602001898481518110612bd757612bd7613827565b60200260200101518152602001888481518110612bf657612bf6613827565b602090810291909101810151909152825460018082018555600094855293829020835160049092020190815590820151928101805460ff19169315159390931790925560408101519091906002820190612c509082613769565b5060608201516003820190612c659082613769565b505050600101612b9e565b507fe17b7d13c79641f1437d6ead12dd2dd76a16667bb88f963398ed5dcd3e2bf28f8a8a86868b604051612ca895949392919061383d565b60405180910390a150505050505050505050565b610a30838383604051602401612cd493929190613976565b60408051601f198184030181529190526020810180516001600160e01b031663ca47c4eb60e01b179052612dbd565b6000612d0e82610b25565b60008381526002602052604081209192505b6005820154811015612d6e576000826005018281548110612d4357612d43613827565b600091825260209091206004909102016001908101805460ff19169215159290921790915501612d20565b50600083815260026020526040902060050180546001919084908110612d9657612d96613827565b60009182526020909120600490910201600101805460ff1916911515919091179055505050565b6105718160006a636f6e736f6c652e6c6f679050600080835160208501845afa505050565b508054612dee906136e7565b6000825580601f10612dfe575050565b601f0160209004906000526020600020908101906105719190612e3d565b50805460008255600402906000526020600020908101906105719190612e56565b5b80821115612e525760008155600101612e3e565b5090565b80821115612e5257600080825560018201805460ff19169055612e7c6002830182612de2565b612e8a600383016000612de2565b50600401612e56565b600060208284031215612ea557600080fd5b5035919050565b634e487b7160e01b600052604160045260246000fd5b60405161010081016001600160401b0381118282101715612ee557612ee5612eac565b60405290565b604051601f8201601f191681016001600160401b0381118282101715612f1357612f13612eac565b604052919050565b600082601f830112612f2c57600080fd5b81356001600160401b03811115612f4557612f45612eac565b612f58601f8201601f1916602001612eeb565b818152846020838601011115612f6d57600080fd5b816020850160208301376000918101602001919091529392505050565b600082601f830112612f9b57600080fd5b81356001600160401b03811115612fb457612fb4612eac565b8060051b612fc460208201612eeb565b91825260208185018101929081019086841115612fe057600080fd5b6020860192505b838310156130265782356001600160401b0381111561300557600080fd5b613014886020838a0101612f1b565b83525060209283019290910190612fe7565b9695505050505050565b600080600080600080600060e0888a03121561304b57600080fd5b87356001600160401b0381111561306157600080fd5b61306d8a828b01612f1b565b97505060208801356001600160401b0381111561308957600080fd5b6130958a828b01612f1b565b9650506040880135945060608801356001600160401b038111156130b857600080fd5b6130c48a828b01612f8a565b94505060808801356001600160401b038111156130e057600080fd5b6130ec8a828b01612f8a565b979a969950949793969560a0850135955060c0909401359392505050565b6000806040838503121561311d57600080fd5b50508035926020909101359150565b6000815180845260005b8181101561315257602081850181015186830182015201613136565b506000602082860101526020601f19601f83011685010191505092915050565b608081526000613185608083018761312c565b8281036020840152613197818761312c565b6040840195909552505090151560609091015292915050565b6000602082016020835280845180835260408501915060408160051b86010192506020860160005b8281101561324657603f19878603018452815180518652602081015115156020870152604081015160806040880152613214608088018261312c565b905060608201519150868103606088015261322f818361312c565b9650505060209384019391909101906001016131d8565b50929695505050505050565b60c08152600061326560c083018961312c565b8281036020840152613277818961312c565b961515604084015250509215156060840152608083019190915260a09091015292915050565b6000806000606084860312156132b257600080fd5b8335925060208401356001600160401b038111156132cf57600080fd5b6132db86828701612f1b565b92505060408401356001600160401b038111156132f757600080fd5b61330386828701612f1b565b9150509250925092565b6000806000806000610180868803121561332657600080fd5b85359450602086013593506040860135925060608601359150609f8601871361334e57600080fd5b613356612ec2565b8061018088018981111561336957600080fd5b608089015b8181101561338657803584526020938401930161336e565b505080925050509295509295909350565b805182526000602082015160e060208501526133b660e085018261312c565b9050604083015184820360408601526133cf828261312c565b915050606083015160608501526080830151608085015260a0830151151560a085015260c0830151151560c08501528091505092915050565b6000602082016020835280845180835260408501915060408160051b86010192506020860160005b8281101561324657603f1987860301845261344c858351613397565b94506020938401939190910190600101613430565b602081526000611f79602083018461312c565b602080825282518282018190526000918401906040840190835b818110156134ac57835183526020938401939092019160010161348e565b509095945050505050565b6000602082840312156134c957600080fd5b81356001600160a01b0381168114611f7957600080fd5b602081526000611f796020830184613397565b6000602082016020835280845180835260408501915060408160051b86010192506020860160005b8281101561324657603f19878603018452815180518652602081015160a0602088015261354b60a088018261312c565b905060408201518782036040890152613564828261312c565b606084810151908a0152608093840151151593909801929092525050602093840193919091019060010161351b565b600080600080600080600080610100898b0312156135b057600080fd5b8835975060208901356001600160401b038111156135cd57600080fd5b6135d98b828c01612f1b565b97505060408901356001600160401b038111156135f557600080fd5b6136018b828c01612f1b565b9650506060890135945060808901356001600160401b0381111561362457600080fd5b6136308b828c01612f8a565b94505060a08901356001600160401b0381111561364c57600080fd5b6136588b828c01612f8a565b989b979a5095989497939693955050505060c08201359160e0013590565b60208082526022908201527f4f6e6c79206f776e65722063616e2063616c6c20746869732066756e6374696f604082015261371760f11b606082015260800190565b634e487b7160e01b600052601160045260246000fd5b6000600182016136e0576136e06136b8565b5060010190565b600181811c908216806136fb57607f821691505b602082108103610b1f57634e487b7160e01b600052602260045260246000fd5b601f821115610a3057806000526020600020601f840160051c810160208510156137425750805b601f840160051c820191505b81811015613762576000815560010161374e565b5050505050565b81516001600160401b0381111561378257613782612eac565b6137968161379084546136e7565b8461371b565b6020601f8211600181146137ca57600083156137b25750848201515b600019600385901b1c1916600184901b178455613762565b600084815260208120601f198516915b828110156137fa57878501518255602094850194600190920191016137da565b50848210156138185786840151600019600387901b60f8161c191681555b50505050600190811b01905550565b634e487b7160e01b600052603260045260246000fd5b85815260a06020820152600061385660a083018761312c565b604083019590955250606081019290925260809091015292915050565b60208082526018908201527f456c656374696f6e20646f6573206e6f742065786973742e0000000000000000604082015260600190565b8281526040602082015260006138c3604083018461312c565b949350505050565b60006101c08201905083825282516020830152602083015160408301526040830151606083015260608301516080830152608083015160a083015260a083015160c0830160005b6008811015613931578251825260209283019290910190600101613912565b5050509392505050565b60006020828403121561394d57600080fd5b81518015158114611f7957600080fd5b80820180821115613970576139706136b8565b92915050565b606081526000613989606083018661312c565b6020830194909452506040015291905056fe6964656e74697479436f6d6d69746d656e7420257320616464656420746f2047524f55505f4944202573a2646970667358221220464737040a55d48de867e3362e07f2c1857c967edc7c87043f72a63596013ed364736f6c634300081c0033",
  "linkReferences": {},
  "deployedLinkReferences": {}
}